:020000040800F2
:10000000002800205D030008850300088503000820
:1000100085030008850300088503000885030008A0
:100020008503000885030008850300088503000890
:1000300085030008850300085101000889010008B4
:10004000ED010008F9010008050200088503000819
:100050008503000885030008850300088503000860
:100060008503000885030008850300088503000850
:100070008503000885030008850300088503000840
:100080008503000885030008850300088503000830
:100090008503000885030008850300088503000820
:1000A0008503000885030008850300088503000810
:1000B0008503000885030008850300088503000800
:1000C00085030008850300088503000885030008F0
:1000D00085030008850300088503000885030008E0
:1000E00085030008850300088503000885030008D0
:1000F00085030008850300088503000885030008C0
:1001000085030008850300088503000885030008AF
:10011000850300088503000885030008850300089F
:10012000850300088503000885030008850300088F
:10013000850300088503000885030008850300087F
:10014000850300088503000885030008850300086F
:1001500080B400AF00BFBD4680BC704780B400AF24
:10016000074B084A5A60064B00229A60044B1B68F2
:10017000034A43F00703136000BFBD4680BC7047CD
:1001800010E000E0FF083D0080B500AF124B1B6897
:10019000114A23F001031360104B1B68002B0CD095
:1001A0000E4B1B6803F00103002B03D00A4B0C4AD3
:1001B0005A6002E0084B0B4A5A60084B1B68013337
:1001C000064A1360044B1B68034A43F001031360A3
:1001D000054B984700BF80BD10E000E014000020F0
:1001E000FF117A00FF083D001102000880B400AF43
:1001F00000BFBD4680BC704780B400AF00BFBD46A5
:1002000080BC704780B400AF00BFBD4680BC704763
:1002100080B400AF044B1B680133034A136000BF76
:10022000BD4680BC704700BF1800002080B58AB072
:1002300000AF464B00221A60454BDB687B62072308
:100240003B623B6A1B02DB437A6A13407B623B6A78
:100250001B0203F4A0637A6A13437B623C4A7B6A05
:10026000D3603B4B1B6AFB61FF23BB61BB691B0473
:10027000DB43FA691340FB61BB691B0403F47003A1
:10028000FA691343FB61324AFB691362304B5B68C6
:100290002F4A43F0805353602E4B1B682D4A43F086
:1002A000010313602B4B1B682A4A43F002031360BF
:1002B000284B1B68274A43F004031360254BD3F8EF
:1002C00000337B61FF233B613B69DB437A69134069
:1002D0007B613B6903F020037A6913437B611D4A0C
:1002E0007B69C2F800331B4BD3F80033FB60FF235C
:1002F000BB60BB681B02DB43FA681340FB60154A16
:10030000FB68C2F80033134BD3F800337B60FF2344
:100310003B603B681B04DB437A6813407B603B68AF
:100320001B0403F480137A6813437B60094A7B68DB
:10033000C2F80033074BD3F80031064A43F00703F5
:10034000C2F80031044B9847FEE700BF18000020B8
:1003500000ED00E000E100E05D010008064807490B
:10036000074A884205D052F8043B40F8043B8842D3
:10037000F9D3FFF75BBFFEE7000000201400002068
:060380009D030008FEE7EA
:10038800564D413A464C4153482C204C4D413A4633
:050398004C4153480038
:10039D00564D413A5352414D2C204C4D413A464C0D
:0403AD004153480070
:04000005080001509E
:00000001FF
