:020000040800F2
:1000000000280020B1010008B7010008B70100086E
:10001000B7010008B7010008B7010008B7010008E0
:10002000B7010008B7010008B7010008B7010008D0
:10003000B7010008B7010008B7010008B7010008C0
:10004000B7010008B7010008B7010008B7010008B0
:10005000B7010008B7010008B7010008B7010008A0
:10006000B7010008B7010008B7010008B701000890
:10007000B7010008B7010008B7010008B701000880
:10008000B7010008B7010008B7010008B701000870
:10009000B7010008B7010008B7010008B701000860
:1000A000B7010008B7010008B7010008B701000850
:1000B000B7010008B7010008B7010008B701000840
:1000C000B7010008B7010008B7010008B701000830
:1000D000B7010008B7010008B7010008B701000820
:1000E000B7010008B7010008B7010008B701000810
:1000F000B7010008B7010008B7010008B701000800
:10010000B7010008B7010008B7010008B7010008EF
:10011000B7010008B7010008B7010008B7010008DF
:10012000B7010008B7010008B7010008B7010008CF
:10013000B7010008B7010008B7010008B7010008BF
:10014000B7010008B7010008B7010008B7010008AF
:1001500080B483B000AF124B10221A60114B1B68A1
:100160003B603B6823F00F033B603B6843F00203B6
:100170003B600C4A3B6813600B4B00221A60002363
:100180007B6002E07B6801337B607B68074A9342B7
:10019000F8DD054B1B68044A83F001031360EEE7AA
:1001A00018100240001001400C1001401FA1070070
:0801B000FFF7CEBFFEE7FEE7FA
:00000001FF
