:020000040800F2
:1000000000280020D9600008AD190008AF190008C9
:10001000B1190008B3190008B51900080000000064
:10002000000000000000000000000000515800081F
:10003000B719000800000000F15800083559000801
:100040002161000821610008216100082161000888
:100050002161000821610008216100082161000878
:100060002161000821610008216100082161000868
:100070002161000821610008216100082161000858
:100080002161000821610008B919000821610008F8
:10009000216100082161000821610008CD190008D4
:1000A00021610008DD1900082161000821610008B4
:1000B00021610008216100080000000021610008A2
:1000C000216100080000000000000000216100081C
:1000D00000000000F1190008216100080000000084
:1000E0002161000821610008216100080000000072
:1000F0000000000000000000000000000000000000
:0C01000000000000000000005FF808F1A3
:10011000034613F8012B002AFBD1181A0138704747
:1001200070B54FF0FF0C4CF4E06C1CEA11541DBF8D
:100130001CEA135594EA0C0F95EA0C0F00F0DEF858
:100140002C4481EA030621EA4C5123EA4C5350EA3D
:10015000013518BF52EA033541F4801143F480138E
:1001600038D0A0FB02CE4FF00005E1FB02E506F01F
:100170000042E0FB03E54FF00006E1FB03569CF074
:10018000000F18BF4EF0010EA4F1FF04B6F5007F7A
:1001900064F5407404D25FEA4E0E6D4146EB0606EC
:1001A00042EAC62141EA55514FEAC52040EA5E5075
:1001B0004FEACE2EB4F1FD0C88BFBCF5E06F1ED81F
:1001C000BEF1004F08BF5FEA500E50F1000041EB56
:1001D000045170BD06F0004646EA010140EA020003
:1001E00081EA0301B4EB5C04C2BFD4EB0C0541EA25
:1001F000045170BD41F480114FF0000E013C00F33A
:10020000AB8014F1360FDEBF002001F0004170BD5D
:10021000C4F10004203C35DA0C341BDC04F1140476
:10022000C4F1200500FA05F320FA04F001FA05F202
:1002300040EA020001F0004221F0004110EBD370CF
:1002400021FA04F642EB06015EEA430E08BF20EAFB
:10025000D37070BDC4F10C04C4F1200500FA04F39E
:1002600020FA05F001FA04F240EA020001F0004130
:1002700010EBD37041F100015EEA430E08BF20EAA3
:10028000D37070BDC4F1200500FA05F24EEA020EEB
:1002900020FA04F301FA05F243EA020321FA04F01A
:1002A00001F0004121FA04F220EA020000EBD370D1
:1002B0005EEA430E08BF20EAD37070BD94F0000FD1
:1002C0000FD101F00046400041EB010111F4801F05
:1002D00008BF013CF7D041EA060195F0000F18BFB6
:1002E000704703F00046520043EB030313F4801FF2
:1002F00008BF013DF7D043EA0603704794EA0C0FAC
:100300000CEA135518BF95EA0C0F0CD050EA4106C1
:1003100018BF52EA4306D1D181EA030101F000413E
:100320004FF0000070BD50EA410606BF1046194666
:1003300052EA430619D094EA0C0F02D150EA013672
:1003400013D195EA0C0F05D152EA03361CBF1046B3
:1003500019460AD181EA030101F0004141F0FE4152
:1003600041F470014FF0000070BD41F0FE4141F4D6
:10037000780170BD4FF0FF0C1CEAD0521EBF1CEA82
:10038000D15392EA0C0F93EA0C0F6FD01A4480EA13
:10039000010C400218BF5FEA41211ED04FF00063FC
:1003A00043EA501043EA5111A0FB01310CF0004028
:1003B000B1F5000F3EBF490041EAD3715B0040EA4E
:1003C000010062F17F02FD2A1DD8B3F1004F40EB1E
:1003D000C25008BF20F00100704790F0000F0CF0F1
:1003E000004C08BF49024CEA502040EA51207F3AB5
:1003F000C2BFD2F1FF0340EAC250704740F4000090
:100400004FF00003013A5DDC12F1190FDCBF00F080
:1004100000407047C2F10002410021FA02F1C2F12E
:10042000200200FA02FC5FEA310040F1000053EACA
:100430004C0308BF20EADC70704792F0000F00F018
:10044000004C02BF400010F4000F013AF9D040EA1E
:100450000C0093F0000F01F0004C02BF490011F4B2
:10046000000F013BF9D041EA0C018FE70CEAD153B0
:1004700092EA0C0F18BF93EA0C0F0AD030F0004C30
:1004800018BF31F0004CD8D180EA010000F00040E4
:10049000704790F0000F17BF90F0004F084691F0A2
:1004A000000F91F0004F14D092EA0C0F01D14202DC
:1004B0000FD193EA0C0F03D14B0218BF084608D1A5
:1004C00080EA010000F0004040F0FE4040F40000EF
:1004D000704740F0FE4040F44000704781F000411A
:1004E00002E000BF83F0004330B54FEA41044FEA19
:1004F000430594EA050F08BF90EA020F1FBF54EAB4
:10050000000C55EA020C7FEA645C7FEA655C00F04F
:10051000E2804FEA5454D4EB5555B8BF6D420CDD20
:100520002C4480EA020281EA030382EA000083EAA3
:10053000010180EA020281EA0303362D88BF30BD43
:1005400011F0004F4FEA01314FF4801C4CEA113199
:1005500002D0404261EB410113F0004F4FEA0333F8
:100560004CEA133302D0524263EB430394EA050F83
:1005700000F0A780A4F10104D5F1200E0DDB02FAF2
:100580000EFC22FA05F2801841F1000103FA0EF286
:10059000801843FA05F359410EE0A5F120050EF14C
:1005A000200E012A03FA0EFC28BF4CF0020C43FA7D
:1005B00005F3C01851EBE37101F0004507D54FF08A
:1005C000000EDCF1000C7EEB00006EEB0101B1F5DA
:1005D000801F1BD3B1F5001F0CD349085FEA300020
:1005E0004FEA3C0C04F101044FEA445212F5800F2B
:1005F00080F09A80BCF1004F08BF5FEA500C50F1C8
:10060000000041EB045141EA050130BD5FEA4C0CAA
:10061000404141EB0101013C28BFB1F5801FE9D207
:1006200091F0000F04BF01460020B1FA81F308BF2A
:100630002033A3F10B03B3F120020CDA0C3208DDF6
:1006400002F1140CC2F10C0201FA0CF021FA02F1D1
:100650000CE002F11402D8BFC2F1200C01FA02F141
:1006600020FA0CFCDCBF41EA0C019040E41AA2BF66
:1006700001EB0451294330BD6FEA04041F3C1CDA2E
:100680000C340EDC04F11404C4F1200220FA04F04E
:1006900001FA02F340EA030021FA04F345EA0301F8
:1006A00030BDC4F10C04C4F1200220FA02F001FABA
:1006B00004F340EA0300294630BD21FA04F029463C
:1006C00030BD94F0000F83F4801306BF81F48011D5
:1006D0000134013D4EE77FEA645C18BF7FEA655C48
:1006E00029D094EA050F08BF90EA020F05D054EA1A
:1006F000000C04BF1946104630BD91EA030F1EBF1F
:100700000021002030BD5FEA545C05D14000494122
:1007100028BF41F0004130BD14F580043CBF01F515
:10072000801130BD01F0004545F0FE4141F47001FB
:100730004FF0000030BD7FEA645C1ABF19461046D6
:100740007FEA655C1CBF0B46024650EA013406BFD7
:1007500052EA033591EA030F41F4002130BD00BF96
:1007600090F0000F04BF0021704730B54FF4806453
:1007700004F132044FF000054FF0000150E700BFD4
:1007800090F0000F04BF0021704730B54FF4806433
:1007900004F1320410F0004548BF40424FF0000120
:1007A0003EE700BF42004FEAE2014FEA31014FEA63
:1007B00002701FBF12F07F4393F07F4F81F06051B2
:1007C000704732F07F4208BF704793F07F4F04BFFD
:1007D00041F40021704730B54FF4607401F00045DA
:1007E00021F000411CE700BF50EA010208BF70473A
:1007F00030B54FF000050AE050EA010208BF70472B
:1008000030B511F0004502D5404261EB41014FF493
:10081000806404F132045FEA915C3FF4D8AE4FF09B
:1008200003025FEADC0C18BF03325FEADC0C18BF7E
:10083000033202EBDC02C2F1200300FA03FC20FACF
:1008400002F001FA03FE40EA0E0021FA02F114441C
:10085000BDE600BF4FEA4102B2F1E04324BFB3F569
:10086000001CDCF1FE5C0DD901F0004C4FEAC00227
:100870004CEA5070B2F1004F40EB830008BF20F00B
:100880000100704711F0804F21D113F13872BCBFC5
:1008900001F00040704741F480114FEA5252C2F11A
:1008A0001802C2F1200C10FA0CF320FA02F018BF63
:1008B00040F001004FEAC1234FEAD32303FA0CFCB6
:1008C00040EA0C0023FA02F34FEA4303CCE77FEA45
:1008D000625307D150EA01331EBF4FF0FE4040F48F
:1008E0004000704701F0004040F0FE4040F400003E
:1008F000704700BF80F0004002E000BF81F000417F
:1009000042001FBF5FEA410392EA030F7FEA226CB5
:100910007FEA236C6AD04FEA1262D2EB1363C1BF45
:10092000D218414048404140B8BF5B42192B88BFB4
:10093000704710F0004F40F4000020F07F4018BFD7
:10094000404211F0004F41F4000121F07F4118BFF7
:10095000494292EA030F3FD0A2F1010241FA03FC9F
:1009600010EB0C00C3F1200301FA03F100F0004387
:1009700002D5494260EB4000B0F5000F13D3B0F14F
:10098000807F06D340084FEA310102F10102FE2ABE
:1009900051D2B1F1004F40EBC25008BF20F001002E
:1009A00040EA03007047490040EB0000013A28BFCD
:1009B000B0F5000FEDD2B0FA80FCACF1080CB2EB50
:1009C0000C0200FA0CF0AABF00EBC25052421843CE
:1009D000BCBFD0401843704792F0000F81F4000173
:1009E00006BF80F400000132013BB5E74FEA410346
:1009F0007FEA226C18BF7FEA236C21D092EA030FB2
:100A000004D092F0000F08BF0846704790EA010F2B
:100A10001CBF0020704712F07F4F04D1400028BF58
:100A200040F00040704712F100723CBF00F500003A
:100A3000704700F0004343F0FE4040F40000704770
:100A40007FEA226216BF08467FEA2363014642021C
:100A500006BF5FEA412390EA010F40F4800070472F
:100A60004FF0000304E000BF10F0004348BF4042D5
:100A70005FEA000C08BF704743F0964301464FF011
:100A800000001CE050EA010208BF70474FF000036D
:100A90000AE000BF50EA010208BF704711F00043AE
:100AA00002D5404261EB41015FEA010C02BF84467E
:100AB0000146002043F0B64308BFA3F18053A3F5DD
:100AC0000003BCFA8CF2083AA3EBC25310DB01FA24
:100AD00002FC634400FA02FCC2F12002BCF1004FA8
:100AE00020FA02F243EB020008BF20F00100704739
:100AF00002F1200201FA02FCC2F1200250EA4C008D
:100B000021FA02F243EB020008BF20EADC707047D2
:100B100042000ED2B2F1FE4F0BD34FF09E03B3EB67
:100B2000126209D44FEA002343F0004323FA02F093
:100B300070474FF00000704712F1610F01D142027F
:100B400002D14FF0FF3070474FF00000704700BFF8
:100B500010B5054C237833B9044B13B10448AFF3F7
:100B600000800123237010BD100000200000000051
:100B70005062000808B5034B1BB103490348AFF3AB
:100B8000008008BD00000000140000205062000832
:100B900000B583B0144C2046144B98474FF0FF31FA
:100BA0000120134B98472046124B9847124B984709
:100BB0000190124B9847124C0022124BA047002282
:100BC000114BA047114B984701901149114B984781
:100BD00001900223002201A90F4800680F4CA04792
:100BE000C8200F4B9847D5E7941E0020755E00087B
:100BF000E14C0008855B0008610A0008A5070008B1
:100C000021010008000014400000303F5508000892
:100C10000000C842750300082C000020913800082D
:100C20001948000802680E4B1B689A4200D07047B2
:100C300000B583B00023019301A90A4B18680A4B41
:100C40009847019B4BB14FF0E0234FF08052C3F81F
:100C5000042DBFF34F8FBFF36F8F03B05DF804FB1C
:100C6000941E002030000020654D000810B582B0B1
:100C7000002204210120084B9847084B1860084BBC
:100C80000193022300930023402206490648074CA3
:100C9000A04702B010BD00BF393800082C0000206A
:100CA0003000002068620008910B0008A944000889
:100CB00000B583B0002301934FF0FF3201A9044B2C
:100CC0001868044B9847019803B05DF804FB00BF17
:100CD0002C000020D13E0008064B1B68092B03D8CE
:100CE000044A136805331360034B1B68014A1268FA
:100CF0005A6370473400002074000020064B1B68C4
:100D00001BB1054A1368053B1360044B1B68024A7C
:100D100012685A63704700BF34000020740000203E
:100D200008B500210148024B984708BD7400002017
:100D3000FD2D000800B583B001220DF1070109481F
:100D4000094B98474FF0FF310120084B984700238B
:100D50004FF0FF320DF1070105480068054CA04730
:100D6000EAE700BFBC00002099340008E14C00080D
:100D70003C0000209138000800B583B04FF0FF32EE
:100D80000DF10701074B1868074B984701220DF139
:100D900007010648064B98474FF0FF310120054BED
:100DA0009847EBE7480000205D3B0008BC000020AE
:100DB000D5300008E14C000802680E4B1B689A42CF
:100DC00000D0704700B583B00023019301A90A4BFE
:100DD00018680A4B9847019B4BB14FF0E0234FF046
:100DE0008052C3F8042DBFF34F8FBFF36F8F03B052
:100DF0005DF804FBBC0000204C000020654D00089D
:100E000002680E4B1B689A4200D0704700B583B051
:100E10000023019301A90A4B18680A4B9847019BCC
:100E20004BB14FF0E0234FF08052C3F8042DBFF3D5
:100E30004F8FBFF36F8F03B05DF804FBBC00002041
:100E400040000020654D000870B582B0154B01933D
:100E5000042300930023402213491448144EB04742
:100E6000002201214020134DA847134B1860012098
:100E7000124CA047124B1860124B0193142300939D
:100E80000023402210491148B04700220121402090
:100E9000A8470F4B18600120A0470E4B186002B006
:100EA00070BD00BF4C00002074620008790D00087E
:100EB000A94400083938000848000020653A0008B5
:100EC000440000204000002084620008350D000826
:100ED0003C0000203800002030B583B08DF80700BA
:100EE0000A4D4FF0FF312868094B984700234FF017
:100EF000FF320DF1070107480068074CA0470023A7
:100F00001A4619462868A04703B030BD44000020A7
:100F1000ED3C00084800002091380008400100F036
:100F2000200001F00F010843054BD860DA6842F059
:100F30004002DA60DA6822F04002DA60704700BFEF
:100F40000010014070B505460C460909044EB04733
:100F500021462846B0470220024B984770BD00BF8B
:100F60001D0F00081948000800B583B01420114C6B
:100F7000A04702210020104B98470220A0472821BB
:100F800000200E4CA0470C210020A0470621002085
:100F9000A04702210020A0474FF0FF3201A9084BD3
:100FA0001868084B98479DF805109DF80400034BFE
:100FB0009847F1E7194800081D0F0008450F000881
:100FC000500000205D3B000810B582B000220221D5
:100FD0004020084B9847084B1860084B01930223A8
:100FE00000930023402206490648074CA04702B060
:100FF00010BD00BF39380008500000205400002008
:1010000090620008690F0008A944000810B582B07A
:101010008DF804008DF8051000234FF0FF3201A970
:1010200002480068024CA04702B010BD50000020EA
:10103000913800080E4B1B78CBB90E4B9B6813F010
:10104000700F03D10A4B01221A70704710B582B09D
:10105000094B1C68094B984702464FF0FF33009339
:10106000002301212046064CA04702B010BD704766
:1010700000000020000C01405C000020DD4500085D
:10108000255000082DE9F04182B093E04F4E012237
:10109000114630464E4CA047002202213046A04760
:1010A000002204213046A047002208213046A047F4
:1010B000464B9E68C6F30216002439E0434E0022D8
:1010C00001213046424CA047012202213046A04770
:1010D000002204213046A047002208213046A047C4
:1010E000E6E73A4E002201213046394CA047002263
:1010F00002213046A047012204213046A0470022A9
:1011000008213046A047D3E7304E00220121304667
:101110002F4CA047002202213046A0470022042184
:101120003046A047012208213046A047C0E70134DD
:10113000022C1DD846FA04F313F0010FF7D0002754
:10114000244B1F70244BD3F80080244B9847024651
:101150004FF0FF3300933B4601214046204FB847F4
:1011600005EB45021F4B1344185D1F4B9847DEE704
:101170000135032D0CD8032D9AD801A353F825F07F
:101180008D100008BD100008E310000809110008C8
:101190000E4D0122114628460D4CA0470122022186
:1011A0002846A047012204212846A0470122082101
:1011B0002846A0474FF0FF3101200C4B9847054BC4
:1011C0001B78002BF6D00025D3E700BF000C0140B0
:1011D0003D250008000000205C000020DD450008DF
:1011E00025500008B4620008D90E0008E14C000840
:1011F00030B583B0134D012211462846124CA0474A
:10120000012202212846A047012204212846A047A6
:10121000012208212846A0470C4B009300231A46C0
:1012200014210B480B4CA0470B4B18600B4B019340
:101230001A2300930023402209490A480A4CA04778
:1012400003B030BD000C01403D25000835100008FA
:101250009C620008E54F00085C0000205800002058
:10126000A862000885100008A9440008802800D062
:10127000704700B583B00023019301A9094B18689A
:10128000094B9847019B4BB14FF0E0234FF0805240
:10129000C3F8042DBFF34F8FBFF36F8F03B05DF81A
:1012A00004FB00BF58000020654D000830B585B034
:1012B0006C4B6C460FCB07C42380802100206A4B07
:1012C000984700240BE004AB1D1915F8101C0120F1
:1012D000654B984715F8100C644B984701346846E5
:1012E000634B9847A042EED848E00025002404E074
:1012F0000225FBE75F4B984701345F4B1A78531B7D
:10130000002BB8BF5B42A34204D9AA42F2D95B4B7F
:101310009847F1E7584B1D708D210020524B98479C
:1013200000245748524B9847A04206D9544B195DA8
:1013300001204D4B98470134F3E7524B1B68063BA5
:101340000C2B2CD94F4B1B68133B062B3ED94D4B16
:101350001B681A3B042B50D94A4B1B681F3B082BB8
:1013600062D9C820484B98478D2100203E4B9847B2
:10137000002443483E4B9847A0426CD8434B9847C3
:10138000434B98473F4C20600A223D49414B9847C8
:1013900023681D2BA9D9222BAAD80125A6E73E4DEB
:1013A00001224FF4004128463C4CA04700224FF454
:1013B00080512846A04700224FF400512846A047FC
:1013C00000224FF480412846A047BBE7324D01225E
:1013D0004FF480412846314CA04700224FF4805101
:1013E0002846A04700224FF400512846A04700227B
:1013F0004FF400412846A047A9E7274D01224FF4AA
:1014000000512846254CA04700224FF48051284621
:10141000A04700224FF480412846A04700224FF405
:1014200000412846A04797E71B4D01224FF4805109
:1014300028461A4CA04700224FF400512846A047E6
:1014400000224FF480412846A04700224FF400417B
:101450002846A04785E720210120034B9847013407
:1014600087E700BFC06200080D100008D90E000811
:1014700011010008D90C000864000020FD0C0008D0
:10148000680000206C00002019480008B10C00081A
:10149000110B00089D610008000C01403D2500086B
:1014A00008B50A4B1B68272B04D8084B1B68232B55
:1014B00006D908BD4FF480510548064B9847F4E71C
:1014C0004FF400410248034B9847F2E76C000020BC
:1014D000000C01404925000810B582B0154B00935F
:1014E000002301224FF47A711348144CA04704469C
:1014F000134B1860134B984702464FF0FF3300938D
:10150000002301212046104CA047104B9847104B58
:101510009847104B9847104B9847104B984700231B
:1015200001930522009240220D490E480E4CA0471F
:1015300002B010BDA1140008D0620008E54F0008F9
:1015400060000020DD45000825500008C90F000894
:10155000490E0008210D00086D0C0008F11100086B
:10156000D8620008AD120008A944000808B5026856
:10157000034B9A4200D008BD024B9847FBE700BFDF
:10158000002C01401D1B000872B6FEE700B595B0A7
:10159000282200210DEB0200184B984700230593E9
:1015A000069307930893099301930293039304937B
:1015B00002230A9301230E9310230F930AA8104BC2
:1015C0009847A8B90F230593002106910791089128
:1015D000099105A80B4B984760B90223019300239A
:1015E000039301A8084B984730B915B05DF804FB88
:1015F000064B9847054B9847044B9847BD61000838
:101600006D1B0008F91F0008012200088915000859
:1016100008B50A4B98470A4B98470A4B98470A4B1C
:1016200098470A4B98470A4B98470A4B98470A4BEA
:1016300098470A4B98470A4B9847FEE7ED1A00086F
:101640008D15000865160008DD180008111800083F
:10165000A15A0008D9140008815300086D1700082A
:10166000C55300082DE9F04188B000240494059486
:1016700006940794314B9A6942F010029A619A6974
:1016800002F010020192019A9A6942F004029A61F2
:101690009A6902F004020292029A9A6942F00802E0
:1016A0009A619B6903F008030393039B244D224630
:1016B0007F212846234FB847234E22464FF20F0181
:1016C0003046B8477F2304934FF00108CDF81480CB
:1016D00002270697079704A928461C4DA8470F2301
:1016E0000493CDF81480CDF81880079704A93046EC
:1016F000A8474FF470430493CDF8148006970797DA
:1017000004A93046A847702304930594069404A9BD
:101710003046A847802304930D4B0593069404A9F3
:101720003046A8472246052117200A4B9847172024
:10173000094B984708B0BDE8F08100BF0010024097
:10174000001001403D250008000C01401D23000849
:10175000000011107D260008ED26000808B50120C4
:10176000014B9847FBE700BF0955000808B5044A3C
:1017700000210448044B9847044B186008BD00BF83
:10178000F46200085D17000815540008700000207E
:101790000268094B9A4200D0704782B003F50333C8
:1017A000DA6942F00202DA61DB6903F002030193B5
:1017B000019B02B0704700BF0004004000B587B035
:1017C0000023029303930493059302680D4B9A42FE
:1017D00002D007B05DF804FB03F503339A6942F0C9
:1017E00004029A619B6903F004030193019B402367
:1017F000029302230393059302A90348034B9847DE
:10180000E7E700BF00040040000801401D23000876
:1018100000B58FB000230A930B930C930D9308939C
:1018200009930193029303930493059306930793FB
:101830002148224A026041F63F72426083600922D9
:10184000C260036183611E4B984728BB4FF48053ED
:101850000A930AA918481B4B984700BB16481A4B15
:101860009847F8B900230893099308A91248174B21
:101870009847D0B960230193002202920223039378
:10188000059201A90C48124B984788B90A48114B98
:1018900098470FB05DF804FB0F4B9847D6E70E4B07
:1018A0009847DBE70C4B9847DCE70B4B9847E1E7A1
:1018B000094B9847EAE700BF74000020000400408D
:1018C000D52A0008F12C0008352B0008D52E000879
:1018D000F92B0008BD1700088915000808B50A484B
:1018E0000A4B03604FF41653436000238360C360C8
:1018F00003610C2242618361C361054B984700B9C3
:1019000008BD044B9847FBE7BC00002000380140AD
:101910006D3000088915000870B586B00023029369
:1019200003930493059302681B4B9A4201D006B0BF
:1019300070BD03F558439A6942F480429A619A69EE
:1019400002F480420092009A9A6942F004029A617D
:101950009B6903F004030193019B4FF4007302930E
:1019600002230393032305930C4E02A930460C4D2A
:10197000A8474FF48063029300240394049402A9BF
:101980003046A847224605212520064B98472520AA
:10199000054B9847CBE700BF0038014000080140E5
:1019A0001D2300087D260008ED260008FEE7FEE75F
:1019B000FEE7FEE7FEE7704708B50248024B98478E
:1019C00008BD00BF941E00208D5B000808B5802074
:1019D000014B984708BD00BF5D25000808B50248C7
:1019E000024B984708BD00BF00010020D92800081D
:1019F00008B50248024B984708BD00BFBC00002054
:101A00003D32000800B583B0114B9A6942F00102E3
:101A10009A619A6902F001020092009ADA6942F032
:101A20008052DA61DB6903F080530193019B00224D
:101A30000F216FF00100074B9847074A536823F0C6
:101A4000E06343F08063536003B05DF804FB00BFC4
:101A5000001002407D2600080000014000B589B05A
:101A6000014600221920174B98471920164B98471A
:101A7000164B9A6942F400629A619B6903F4006311
:101A80000193019B02A903A8114B9847114B98475A
:101A9000114BA3FB00239B0C013B1048104A026032
:101AA00040F2E732C26043600023036183600D4B64
:101AB000984718B1012009B05DF804FB07480A4BAC
:101AC0009847F8E77D260008ED2600080010024040
:101AD000C5210008A121000883DE1B43000100206E
:101AE000002C0140D52A00086D28000808B5074AD7
:101AF000136843F0100313600320054B98470F2031
:101B0000044B9847044B9847002008BD0020024032
:101B1000592600085D1A0008051A0008034A1168D2
:101B2000034B1B780B441360704700BF4801002033
:101B300001000020014B1868704700BF48010020D9
:101B400082B0084B1B68084AA2FB03235B0A00FB18
:101B500003F3019300BF019B5A1E0192002BF9D1A0
:101B600002B0704708000020D34D6210002800F03A
:101B7000F58170B582B00446036813F0010F2CD0D4
:101B80008F4B5B6803F00C03042B1DD08C4B5B6800
:101B900003F00C03082B12D06368B3F5803F41D0EB
:101BA000002B55D103F1804303F504331A6822F466
:101BB00080321A601A6822F480221A6037E0804B63
:101BC0005B6813F4803FE7D07D4B1B6813F4003F44
:101BD00003D06368002B00F0C381236813F0020F69
:101BE00075D0774B5B6813F00C0F5FD0744B5B685C
:101BF00003F00C03082B54D02369002B00F08A80DB
:101C0000704B01221A60704B984705466C4B1B685D
:101C100013F0020F75D16C4B9847401B0228F5D981
:101C20000320A2E1664A136843F4803313606368BB
:101C300043B3654B98470546614B1B6813F4003F5F
:101C4000CBD1614B9847401B6428F5D903208CE128
:101C5000B3F5A02F09D05A4B1A6822F480321A60CB
:101C60001A6822F480221A60E1E703F18043A3F5A9
:101C70003C331A6842F480221A601A6842F48032B7
:101C80001A60D4E7504B984705464D4B1B6813F438
:101C9000003FA2D04C4B9847401B6428F5D9032045
:101CA00063E1474B5B6813F4803FA5D1444B1B684D
:101CB00013F0020F03D02369012B40F05381404AF7
:101CC000136823F0F803616943EAC10313602368D2
:101CD00013F0080F33D0A369002B5CD0394B0122DD
:101CE000C3F88024384B98470546354B5B6A13F0A0
:101CF000020F21D1344B9847401B0228F5D903200D
:101D000033E12F4A136823F0F803616943EAC10302
:101D10001360DCE72B4B00221A602B4B98470546DB
:101D2000274B1B6813F0020FD1D0274B9847401B5D
:101D30000228F5D9032018E10120244B9847236895
:101D400013F0040F00F09A801D4BDB6913F0805FE5
:101D500034D11B4BDA6942F08052DA61DB6903F05F
:101D600080530193019B0125194B1B6813F4807F5D
:101D700030D0E368012B41D0002B57D103F18043D1
:101D800003F504331A6A22F001021A621A6A22F079
:101D900004021A6237E00B4B0022C3F880240A4B7E
:101DA00098470546064B5B6A13F0020FC7D0064BF7
:101DB0009847401B0228F5D90320D6E00025D3E739
:101DC0000010024000004242351B0008411B000881
:101DD00000700040694A136843F480731360684BD5
:101DE00098470646654B1B6813F4807FC1D1644B4E
:101DF0009847801B6428F5D90320B6E0614A136A2E
:101E000043F001031362E36833B35D4B9847064622
:101E10005C4B1B6A13F0020F2FD1594B9847801B64
:101E200041F288339842F3D903209EE0052B09D074
:101E3000544B1A6A22F001021A621A6A22F0040252
:101E40001A62E0E74F4B1A6A42F004021A621A6AF9
:101E500042F001021A62D6E7494B98470646494BC1
:101E60001B6A13F0020F08D0454B9847801B41F2C4
:101E700088339842F3D9032077E0E5B9E369002B72
:101E800072D0404A526802F00C02082A56D0022B47
:101E900017D03D4B00221A66394B98470446394B00
:101EA0001B6813F0007F47D0354B9847001B022872
:101EB000F5D9032059E0334AD36923F08053D36125
:101EC000DCE7314B00221A662D4B984705462D4B17
:101ED0001B6813F0007F06D0294B9847401B02284F
:101EE000F5D9032041E0236AB3F5803F1AD0254994
:101EF0004B6823F47413226A606A024313434B60F5
:101F0000214B01221A661E4B984704461D4B1B6845
:101F100013F0007F0ED11A4B9847001B0228F5D909
:101F2000032022E0174A536823F40033A1680B43CF
:101F30005360DCE7002018E0002016E0012B16D0EB
:101F4000104B5B6803F48031226A914211D103F493
:101F50007013626A93420ED1002006E001207047A0
:101F6000012002E0012000E0002002B070BD01204D
:101F7000FBE70120F9E70120F7E700BF0070004010
:101F8000351B0008001002400000424286B0164B8C
:101F90000FCB0DF1180C0CE90F0040F20123ADF846
:101FA0000430124B5B6803F00C02082A02D0104880
:101FB00006B07047C3F38342624412F8100C13F466
:101FC000803F0CD0094B5B68C3F34043634413F874
:101FD000143C074A02FB00F0B0FBF3F0E8E7054BC6
:101FE00003FB00F0E4E700BF1863000800100240A4
:101FF00000127A0000093D00002800F0A08070B5B2
:102000000D460446524B1B6803F007038B420BD26C
:102010004F4A136823F007030B431360136803F060
:1020200007038B4240F08D80236813F0020F17D016
:1020300013F0040F04D0474A536843F4E06353603D
:10204000236813F0080F04D0424A536843F46053E6
:102050005360404A536823F0F003A1680B43536078
:10206000236813F0010F31D06368012B20D0022BBD
:1020700025D0384A126812F0020F64D035494A68F8
:1020800022F0030213434B60334B98470646314B13
:102090005B6803F00C036268B3EB820F16D02E4B23
:1020A0009847801B41F288339842F0D9032045E0DD
:1020B000284A126812F4003FE0D101203EE0254A90
:1020C000126812F0007FD9D1012037E0204B1B6845
:1020D00003F00703AB420AD91D4A136823F0070334
:1020E0002B431360136803F00703AB422DD1236821
:1020F00013F0040F06D0174A536823F4E063E16835
:102100000B435360236813F0080F07D0114A53683C
:1021100023F46053216943EAC10353600F4B98478E
:102120000C4B5B68C3F303130D4AD35CD8400D4BD3
:1021300018600D4B18680D4B9847002070BD0120AA
:1021400070470120FAE70120F8E70120F6E700BF19
:102150000020024000100240351B00088D1F0008BF
:102160002C63000808000020040000205D1A00080D
:10217000014B1868704700BF0800002008B5054BE8
:102180009847054B5B68C3F30223044AD35CD840ED
:1021900008BD00BF71210008001002403C63000828
:1021A00008B5054B9847054B5B68C3F3C223044A47
:1021B000D35CD84008BD00BF712100080010024068
:1021C0003C6300080F2303600B4B5A6802F00302C4
:1021D00042605A6802F0F00282605A6802F4E062DB
:1021E000C2605B68DB0803F4E0630361034B1B68B8
:1021F00003F007030B60704700100240002002400C
:1022000070B582B00446036813F0010F36D03F4B1F
:10221000DB6913F0805F49D13C4BDA6942F08052B0
:10222000DA61DB6903F080530193019B0125384B90
:102230001B6813F4807F3BD0344B1B6A13F440734C
:1022400013D0626802F440729A420ED02F4A136A89
:1022500023F440702F490126C1F840640026C1F8DC
:102260004064106213F0010F36D1284A136A23F438
:10227000407361680B431362002D3ED1236813F055
:10228000020F06D0214A536823F44043A1680B4350
:102290005360236813F0100F34D01C4A536823F4A2
:1022A0008003E1680B43536000202CE00025BEE76B
:1022B000174A136843F480731360174B9847064618
:1022C000134B1B6813F4807FB6D1134B9847801BC8
:1022D0006428F5D9032016E00F4B984706460B4BB0
:1022E0001B6A13F0020FC0D10B4B9847801B41F2C1
:1022F00088339842F3D9032005E0D36923F0805353
:10230000D361BBE7002002B070BD00BF00100240E7
:102310000070004000004242351B000870B582B0DA
:102320000024A4468BE07F4DAA4210D007D97E4DF1
:10233000AA420CD005F58035AA4208D015E0A5F5D3
:102340008015AA4203D005F57025AA4209D18A68F2
:10235000002A00F0BF80012A00F0B7804361082402
:1023600003E0A5F58015AA42F1D0BEF1FF0F00F2FF
:10237000B3800646BEF1FF0F00F2B0804FEA8C0238
:1023800033680F25954023EA050304FA02F213434C
:1023900033604B6813F0805F4FD0644B9A6942F012
:1023A00001029A619B6903F001030193019B4FEACB
:1023B0009C02951C5E4B53F825600CF003039D00B6
:1023C0000F23AB4026EA03065A4B984200F08C805C
:1023D00003F58063984200F0898003F5806398429A
:1023E00000F080800323AB4033430232504D45F868
:1023F00022304B6813F4803F7AD04F4A136843EA87
:102400000E0313604B6813F4003F77D04A4A5368B9
:1024100043EA0E0353604B6813F4801F74D0464A9E
:10242000936843EA0E0393604B6813F4001F71D066
:10243000414AD36843EA0E03D3600CF1010C0A68E9
:1024400032FA0CF36CD0012303FA0CF302EA030E08
:1024500033EA0202F1D14A68122A3FF664AF122A27
:1024600083D801A555F822F04F230008B5240008B1
:10247000BF240008D12400086B2300086B23000848
:102480006B2300086B2300086B2300086B230008F4
:102490006B2300086B2300086B2300086B230008E4
:1024A0006B2300086B2300086B230008B924000885
:1024B000C5240008CC6858E7CC68043455E7CC68DC
:1024C000083452E7CC680C344FE7036108244CE72A
:1024D00000244AE7042448E7061D4BE7ACF1080254
:1024E00092004DE702237EE700237CE701237AE791
:1024F000114A136823EA0E03136083E70E4A5368F8
:1025000023EA0E03536086E70B4A936823EA0E031F
:10251000936089E7084AD36823EA0E03D3608CE707
:1025200002B070BD00002210000031100010024007
:102530000000014000080140000401400AB10161AF
:102540007047090401617047C36801EA030221EA88
:10255000030141EA024101617047000008B5054BE3
:102560005B69034200D108BD024B5861024B98479A
:10257000F9E700BF000401406D12000890F8213017
:10258000022B06D004238363002380F8203001202F
:1025900070470268136823F00E0313600268136823
:1025A00023F001031360036CC16B012202FA03F3F1
:1025B0004B6080F82120002380F8203018467047B7
:1025C00008B590F82130022B03D004238363012047
:1025D00008BD0268136823F00E03136002681368D5
:1025E00023F0010313600368194A934214D0143294
:1025F00093421FD0143293421ED0143293421ED005
:10260000143293421ED01432934202D04FF08072A3
:1026100003E04FF4801200E001220E4B5A600123C8
:1026200080F82130002380F82030436B6BB198474D
:102630000020CDE71022F0E74FF48072EDE74FF471
:102640008052EAE74FF48032E7E70020C0E700BF9E
:102650000800024000000240074AD36823F4E06308
:102660001B041B0C000200F4E060034343F0BF6353
:1026700043F40033D360704700ED00E000B5194B20
:10268000DB68C3F30223C3F1070CBCF1040F28BFBE
:102690004FF0040C03F1040EBEF1060F18D9033BF2
:1026A0004FF0FF3E0EFA0CFC21EA0C0199400EFAA5
:1026B00003F322EA0303194300280BDB0901C9B223
:1026C00000F1604000F5614080F800135DF804FB04
:1026D0000023E5E700F00F000901C9B2024B1954CD
:1026E000F4E700BF00ED00E014ED00E0002807DB98
:1026F00000F01F02400901239340024A42F82030B3
:10270000704700BF00E100E070B4036A23F00103EA
:102710000362036A4668826922F073020C6844EA25
:10272000020523F002028B6813430D4CA04209D02E
:102730000B4CA0420DD0466085614A68426303623B
:1027400070BC704723F00803CA68134323F00403E6
:10275000EEE726F440764A6932438E691643EAE78B
:10276000002C014030B4036A23F480730362036ACF
:102770004568C26922F073020C68224323F4007397
:102780008C6843EA04230F4CA04209D00D4CA042B0
:102790000ED04560C2614A68C263036230BC7047B4
:1027A00023F40063CC6843EA042323F48063EDE759
:1027B00025F440554C6945EA04158C6945EA041531
:1027C000E7E700BF002C014030B4036A23F48053D4
:1027D0000362036A4468C26922F4E6420D6842EA71
:1027E000052223F400538D6843EA0533074DA842C0
:1027F00006D04460C2614A680264036230BC70471C
:1028000024F480444D6944EA8514F2E7002C014029
:1028100010B4036A046A24F001040462846924F099
:10282000F00C4CEA021223F00A030B4382610362AC
:1028300010BC704710B4046A24F010040462846968
:10284000036A24F4704C4CEA023223F0A00343EAFA
:1028500001138261036210BC7047836823F0700328
:102860000B4343F0070383607047000090F83D304E
:10287000DBB2012B23D1022380F83D300268D368FC
:1028800043F00103D36003680F4A93420CD0B3F1C5
:10289000804F09D0A2F59432934205D01A6842F0D5
:1028A00001021A60002070479A6802F00702062AA7
:1028B00007D01A6842F001021A6000207047012018
:1028C00070470020704700BF002C014070477047E0
:1028D000704770477047000010B5044603681A69D6
:1028E00012F0020F11D0DA6812F0020F0DD06FF063
:1028F00002021A610123037703689B6913F0030F37
:1029000070D0544B98470023237723681A6912F03C
:10291000040F12D0DA6812F0040F0ED06FF0040228
:102920001A610223237723689B6913F4407F5FD0E9
:102930002046484B98470023237723681A6912F0F2
:10294000080F12D0DA6812F0080F0ED06FF00802EC
:102950001A61042323772368DB6913F0030F4ED039
:1029600020463C4B98470023237723681A6912F0CE
:10297000100F12D0DA6812F0100F0ED06FF01002A4
:102980001A61082323772368DB6913F4407F3DD065
:102990002046304B98470023237723681A6912F0AA
:1029A000010F03D0DA6812F0010F36D123681A69DB
:1029B00012F0800F03D0DA6812F0800F34D1236850
:1029C0001A6912F0400F03D0DA6812F0400F32D1CA
:1029D00023681A6912F0200F03D0DA6812F0200F72
:1029E00030D110BD1C4B984720461C4B98478AE7B6
:1029F0002046194B98472046184B98479BE720469E
:102A0000154B98472046154B9847ACE72046124B8C
:102A100098472046114B9847BDE76FF001021A61B5
:102A200020460F4B9847C1E76FF080021A6120469D
:102A30000C4B9847C3E76FF040021A6120460A4BDF
:102A40009847C5E76FF020021A612046074B984768
:102A5000C7E700BFD1280008CF280008D328000806
:102A60006D1500083B2F0008D5280008392F0008F5
:102A70000368174A904206D0B0F1804F03D0A2F508
:102A80009432904203D123F070034A681343104AF2
:102A9000904206D0B0F1804F03D0A2F5943290421C
:102AA00003D123F44073CA68134323F080034A69B7
:102AB000134303608B68C3620B688362044B9842C4
:102AC00002D00123436170470B690363F9E700BF3C
:102AD000002C014040B310B5044690F83D30F3B1EE
:102AE000022384F83D30214651F8040B0F4B9847E0
:102AF000012384F8463084F83E3084F83F3084F86F
:102B0000403084F8413084F8423084F8433084F80F
:102B1000443084F8453084F83D30002010BD80F802
:102B20003C30034B9847DBE701207047712A0008CF
:102B30009117000840B310B5044690F83D30F3B14A
:102B4000022384F83D30214651F8040B0F4B98477F
:102B5000012384F8463084F83E3084F83F3084F80E
:102B6000403084F8413084F8423084F8433084F8AF
:102B7000443084F8453084F83D30002010BD80F8A2
:102B80003C30034B9847DBE701207047712A00086F
:102B9000CD28000830B4036A23F010030362036AEF
:102BA0004468826922F4E6420D6842EA052223F075
:102BB00020038D6843EA05130E4DA84209D00D4D40
:102BC000A8420ED0446082614A688263036230BCCE
:102BD000704723F08003CD6843EA051323F04003D8
:102BE000EDE724F440644D6944EA85048D6944EAC4
:102BF0008504E7E7002C014038B590F83C30012B04
:102C000060D004460D46012380F83C300C2A1AD8C7
:102C1000DFE802F0071919191D19191931191919C5
:102C200044000068284B98472268936943F00803E2
:102C300093612268936923F0040393612268936986
:102C400029690B439361002084F83C0038BD00687B
:102C50001E4B98472268936943F40063936122688E
:102C6000936923F48063936122689369296943EA35
:102C700001239361E7E70068154B98472268D36901
:102C800043F00803D3612268D36923F00403D361BE
:102C90002268D36929690B43D361D4E700680D4BDF
:102CA00098472268D36943F40063D3612268D369EB
:102CB00023F48063D3612268D369296943EA01233D
:102CC000D361C0E70220C1E709270008952B00085F
:102CD00065270008C927000810B4846824F47F4CD5
:102CE00042EA03220A4342EA0C02826010BC7047A7
:102CF00038B590F83C30012B65D00446012380F8AC
:102D00003C30022380F83D300268936823F47F430F
:102D100023F0770393600B68602B40D022D8402BC0
:102D200047D00BD9502B0ED1CA6849680068274B91
:102D3000984750212068264B984704E0202B0CD060
:102D400008D9302B09D0012384F83D30002084F8C5
:102D50003C0038BD0BB1102BF5D1194620681C4B37
:102D60009847F0E7702B0ED0B3F5005FEBD1CB683E
:102D70004A6889680068174DA8472268936843F439
:102D800080439360DFE7CB684A6889680068114D2B
:102D9000A8472268936843F077039360D3E7CA6833
:102DA000496800680C4B984760212068084B984799
:102DB000C9E7CA6849680068044B98474021206801
:102DC000034B9847BFE70220C3E700BF1128000864
:102DD0005B280008D92C00083528000801F01F01E5
:102DE000012303FA01FC036A23EA0C030362036A6A
:102DF00002FA01F10B4303627047000010B504466C
:102E0000084631BB94F83E30DBB2013B18BF0123CA
:102E1000002B57D1002835D1022384F83E300122FF
:102E200001462068294B98472368294A934239D0A4
:102E30002368274A93423AD0B3F1804F37D0A2F5A6
:102E40009432934233D01A6842F001021A60002093
:102E500039E0042908D008290DD094F84130DBB2BC
:102E6000013B18BF0123D3E794F83F30DBB2013BAD
:102E700018BF0123CCE794F84030DBB2013B18BF08
:102E80000123C5E7042805D0082807D0022384F8C9
:102E90004130C4E7022384F83F30C0E7022384F8BE
:102EA0004030BCE75A6C42F400425A64C0E79A686A
:102EB00002F00702062A07D01A6842F001021A60DF
:102EC000002000E0012010BD0020FCE7DD2D0008FF
:102ED000002C014090F83C30012B28D010B4012385
:102EE00080F83C30022380F83D3003685A689C68C3
:102EF00022F0700C0A6842EA0C025A6003680D4A1C
:102F0000934206D0B3F1804F03D0A2F5943293429E
:102F100004D124F080044A6814439C60012380F8A3
:102F20003D30002380F83C30184610BC704702202A
:102F3000704700BF002C0140704770470268D3689B
:102F400023F49073D3600268536923F00103536143
:102F5000036B012B05D0202380F83E300023036350
:102F600070470268D36823F01003D360F3E790F84A
:102F70003D30DBB2212B01D0022070478368B3F5CE
:102F8000805F17D0036A5A1C02621A7803685A607D
:102F9000C38C9BB2013B9BB2C3844BB90268D3681C
:102FA00023F08003D3600268D36843F04003D3600A
:102FB000002070470369002BE4D1036A1B88026874
:102FC000C3F308035360036A02330362E0E70000BF
:102FD00010B504460268136923F44053C1680B43DB
:102FE000136183680269134342691A430168CB681D
:102FF00023F4B05323F00C031343CB6002685369EE
:1030000023F4407381690B4353610268134B9A4266
:1030100020D0134B9847024602EB820202EB820259
:1030200063689B00B2FBF3F20E48A0FB0231490932
:10303000642303FB11231B013233A0FB03235B0931
:1030400003F0F00202EB011203F00F0321681344B6
:103050008B6010BD044B98470246DDE70038014005
:103060007D2100081F85EB51A121000858B310B540
:10307000044690F83D300BB3242384F83D30226899
:10308000D36823F40053D3602046104B984722683E
:10309000136923F4904313612268536923F02A03D0
:1030A00053612268D36843F40053D3600020206446
:1030B000202384F83D3084F83E3010BD80F83C3049
:1030C000034B9847D8E70120704700BFD12F000875
:1030D0001919000890F83D30DBB2202B19D1D1B17D
:1030E000DAB190F83C30012B19D0012380F83C3044
:1030F00001628284C28400230364212280F83D207F
:1031000080F83C300168CA6842F08002CA60184604
:10311000704702207047012070470120704702204D
:103120007047000008B50168CA6822F04002CA6012
:10313000202280F83D20024B9847002008BD00BFA8
:10314000B90D00087047000008B5406A0023C38528
:10315000C384014B984708BD453100087047000003
:1031600090F83E30DBB2222B60D18368B3F5805FEC
:1031700046D0826AB3F5805F04D0002B4DD103693D
:10318000002B4AD103685B681370836A0133836242
:10319000C38D9BB2013B9BB2C385002B48D100B5C8
:1031A00083B00268D36823F02003D3600268D36839
:1031B00023F48073D3600268536923F001035361E1
:1031C000202380F83E30036B012B2CD100230363B6
:1031D0000268D36823F01003D36003681A6812F002
:1031E000100F06D0002201921A6801925B680193C9
:1031F000019B818D0F4B9847002003B05DF804FBC5
:103200000269002AB5D1826A03685B68C3F30803C8
:103210001380836A02338362BAE703685B6803F052
:103220007F031370B1E7044B9847E5E7022070472E
:10323000002070475D310008010E000830B583B0F2
:10324000044602681368D068516913F00F0505D170
:1032500013F0200F02D010F0200F19D12DB111F072
:10326000010119D110F4907F16D1216B012975D07D
:1032700013F0800F03D010F0800F40F0D78013F0D0
:10328000400F03D010F0400F40F0D48003B030BDA9
:1032900020466A4B9847F9E713F0010F06D010F467
:1032A000807F03D0226C42F00102226413F0040FED
:1032B00004D019B1226C42F00202226413F0020F12
:1032C00004D019B1226C42F00402226413F0080FFA
:1032D00007D010F0200F00D119B1226C42F0080283
:1032E0002264226C002AD1D013F0200F02D010F0FB
:1032F000200F21D123685B6903F04003226C12F098
:10330000080F00D123B320464D4B984723685A69D4
:1033100012F0400F18D05A6922F040025A61A36B94
:1033200073B1484A5A63A06B474B98470028ADD009
:10333000A06B436B9847A9E72046404B9847D9E7D5
:103340002046424B9847A1E72046404B98479DE7CF
:1033500020463E4B98470023236497E713F0100F55
:1033600086D010F0100F83D00023019313680193CF
:1033700053680193019B536913F0400F32D0A16B46
:103380000B685B689BB2002B80D0A08D98427FF6C3
:103390007DAFE3858B69202B08D1A18DE38D9BB296
:1033A000C91A89B220462A4B98476FE7D36823F49D
:1033B0008073D3602268536923F00103536122684C
:1033C000536923F040035361202384F83E300023E7
:1033D00023632268D36823F01003D360A06B1D4BD6
:1033E0009847DAE7A18DE38D9BB2C91A89B2E38DC4
:1033F0009BB2002B3FF44AAF00293FF447AFD3689C
:1034000023F49073D3602268536923F0010353615E
:10341000202384F83E30002323632268D36823F0FE
:103420001003D36020460A4B98472FE720460A4BEB
:1034300098472BE72046094B984727E7613100085A
:103440003D2F000849310008C1250008453100081A
:103450005D3100087D2500086F2F00082531000828
:10346000034681628285C28500201864222283F887
:103470003E2083F83C001968CA6842F48072CA6032
:1034800019684A6942F001024A611A68D36843F038
:103490002003D3607047000008B590F83E30DBB2DF
:1034A000202B0DD171B17AB190F83C30012B0DD0A9
:1034B000012380F83C3000230363054B984700E06C
:1034C000022008BD0120FCE70120FAE70220F8E70E
:1034D00061340008704700F1080343604FF0FF3289
:1034E0008260C360036100230360704700230361AF
:1034F000704743684B609A688A60516099600861C0
:10350000036801330360704730B40D68B5F1FF3FC5
:1035100011D000F108031C465B681A68AA42FAD968
:1035200063684B6099608C60616008610368013377
:10353000036030BC70470469F2E703694168826840
:103540008A60416851605A68824206D00022026156
:103550001A68013A1A601868704782685A60F5E77D
:103560000346406A18B11B6B1868C0F138007047F9
:1035700010B50446064B9847A26BE36B9A4204D001
:103580000024044B9847204610BD0124F9E700BFF2
:1035900075580008B958000810B50446054B9847FF
:1035A000A36B23B90124044B9847204610BD002487
:1035B000F9E700BF75580008B958000870B504460F
:1035C0001546866B026C5AB903681BB100200136A0
:1035D000A66370BD4068174B984700236360F6E709
:1035E0006DB98068144B9847226CA3681344A3609C
:1035F0006268934219D32368A3602846E7E7C0684E
:103600000D4B9847226C5142E3689B1AE360226895
:10361000934202D263680B44E360022D01D0002084
:10362000D5E726B1013E0020D1E72846CFE70020AC
:10363000CDE700BF854B0008A161000808B503462F
:10364000026C62B10846D9681144D960D3F804C04D
:10365000614501D31968D960D968014B984708BD05
:10366000A161000838B505461A4B984795F84540C2
:1036700064B201E0013C64B2002C0ADD6B6A43B124
:1036800005F12400144B98470028F3D0134B9847BA
:10369000F0E7FF2385F84530114B98470D4B9847CD
:1036A00095F8444064B201E0013C64B2002C0ADDAC
:1036B0002B6943B105F11000074B98470028F3D060
:1036C000064B9847F0E7FF2385F84430044B9847B2
:1036D00038BD00BF755800087D490008B94A000888
:1036E000B958000838B5E0B10D4604461E4B98475E
:1036F0002368E26B216C01FB023060600020A06354
:10370000A360013A02FB0133E360FF2384F84430F5
:1037100084F84530FDB9236963B9144B98470120FB
:1037200038BD4FF0500383F31188BFF36F8FBFF3A1
:103730004F8FFEE704F110000D4B98470028ECD0A6
:103740004FF0E0234FF08052C3F8042DBFF34F8FAA
:10375000BFF36F8FE1E704F11000064DA84704F1B5
:103760002400A847D9E700BF75580008B9580008D9
:103770007D490008D734000838B51D46049C0B4627
:1037800049B92460E063236401212046034B984734
:1037900084F84C5038BD2260F4E700BFE5360008DD
:1037A00040B94FF0500383F31188BFF36F8FBFF31D
:1037B0004F8FFEE730B585B01C46844653B192B1B9
:1037C00089B94FF0500383F31188BFF36F8FBFF3B4
:1037D0004F8FFEE74FF0500383F31188BFF36F8FD5
:1037E000BFF34F8FFEE76AB150230393039B502B27
:1037F00013D04FF0500383F31188BFF36F8FBFF3E3
:103800004F8FFEE70029EFD04FF0500383F311886C
:10381000BFF36F8FBFF34F8FFEE7012384F846306D
:1038200000949DF820306046024DA847204605B020
:1038300030BD00BF7937000840B94FF0500383F323
:103840001188BFF36F8FBFF34F8FFEE7F0B583B0E2
:103850000C4615460746A1B101FB00F050300A4B5B
:103860009847064650B1002380F8463000902B461A
:1038700000F1500221463846044CA047304603B0C0
:10388000F0BD0846EAE700BF455600087937000852
:10389000F0B585B0019288B10F461D460446B1B11E
:1038A000022D20D1E36B012B1DD04FF0500383F389
:1038B0001188BFF36F8FBFF34F8FFEE74FF05003B8
:1038C00083F31188BFF36F8FBFF34F8FFEE7036C55
:1038D000002BE5D04FF0500383F31188BFF36F8FB7
:1038E000BFF34F8FFEE74C4B9847064658B9019BF4
:1038F000002B48D04FF0500383F31188BFF36F8F34
:10390000BFF34F8FFEE700263DE02A4639462046AA
:10391000424B9847636A7BB948B14FF0E0234FF0C0
:103920008052C3F8042DBFF34F8FBFF36F8F3C4B12
:103930009847012005B0F0BD04F12400394B9847A9
:103940000028F4D04FF0E0234FF08052C3F8042D4C
:10395000BFF34F8FBFF36F8FE9E7314B98470020DC
:10396000E8E702A8304B9847012619E0002384F8C5
:10397000443021E0002384F8453023E020462B4BDF
:1039800098472B4B98472B4B9847A26BE36B9A4277
:10399000BBD3022DB9D0019B002BDED0002EE0D08E
:1039A0001F4B9847244B9847224B984794F8442044
:1039B00052B2B2F1FF3FD9D094F8452052B2B2F1E1
:1039C000FF3FD7D0164B984701A902A81B4B984739
:1039D000D8B920461A4B98470028CFD0019904F156
:1039E0001000184B98472046104B9847104B9847AB
:1039F0000028C8D14FF0E0234FF08052C3F8042DC7
:103A0000BFF34F8FBFF36F8FBDE72046074B98473B
:103A1000074B984700208DE7C54A0008BD350008D0
:103A2000B95800087D490008114A000865360008A9
:103A30000D47000875580008CD450008294A0008C0
:103A4000713500080549000848B110B500214160F2
:103A50000160C1600B460A46014CA04710BD70478B
:103A60009138000810B5024600210120034B984709
:103A70000446034B9847204610BD00BF3938000864
:103A8000493A00082DE9F84390B10F4616461C4606
:103A90000546B1B1022C20D1EB6B012B1DD04FF0AC
:103AA000500383F31188BFF36F8FBFF34F8FFEE78F
:103AB0004FF0500383F31188BFF36F8FBFF34F8F25
:103AC000FEE7036C002BE5D04FF0500383F3118821
:103AD000BFF36F8FBFF34F8FFEE71D4B9847EFF398
:103AE00011894FF0500383F31188BFF36F8FBFF339
:103AF0004F8FAA6BEB6B9A4206D3022C04D00020A6
:103B000089F31188BDE8F88395F845804FFA88F865
:103B10002246394628460F4B9847B8F1FF3F06D05A
:103B200008F101035BB285F845300120E8E76B6AD4
:103B30000BB90120E4E705F12400074B984718B1C1
:103B400026B101203060DBE70120D9E70120D7E76B
:103B5000455A0008BD3500087D490008F0B585B01C
:103B6000019290B10F460446C1B1544B98470646A6
:103B700000BB019B002B5ED04FF0500383F31188F4
:103B8000BFF36F8FBFF34F8FFEE74FF0500383F308
:103B90001188BFF36F8FBFF34F8FFEE7036C002BCD
:103BA000E3D04FF0500383F31188BFF36F8FBFF35F
:103BB0004F8FFEE700263EE039462046404B9847AF
:103BC000013DA563236923B93E4B9847012005B009
:103BD000F0BD04F110003C4B98470028F4D04FF0A2
:103BE000E0234FF08052C3F8042DBFF34F8FBFF393
:103BF0006F8FE9E7334B98470020E8E702A8334B83
:103C00009847012621E0002384F8443029E000236E
:103C100084F845302BE020462D4B98472D4B984794
:103C200009E020462A4B98472A4B984720462A4BC2
:103C3000984700283FD1294B9847A56B002DBBD151
:103C4000019B002BD6D0002ED8D01E4B9847244B7A
:103C50009847224B984794F844305BB2B3F1FF3F4A
:103C6000D1D094F845305BB2B3F1FF3FCFD0154BC4
:103C7000984701A902A81B4B98470028D1D120469C
:103C8000154B98470028C6D0019904F12400164B23
:103C9000984720460E4B98470E4B98470028CAD1AC
:103CA0004FF0E0234FF08052C3F8042DBFF34F8F45
:103CB000BFF36F8FBFE7002089E700BFC54A000848
:103CC0003D360008B95800087D490008114A00082F
:103CD000653600080D47000899350008755800083A
:103CE000CD450008294A00080549000870B584B090
:103CF000019158B10446036C8BB14FF0500383F32C
:103D00001188BFF36F8FBFF34F8FFEE74FF0500363
:103D100083F31188BFF36F8FBFF34F8FFEE75D4BC7
:103D20009847054650B9019B5BB14FF0500383F3B0
:103D30001188BFF36F8FBFF34F8FFEE70026354624
:103D400055E0064653E0013BA36323683BB123697A
:103D50004BB9514B98470126304604B070BD4F4BCC
:103D600098476060F3E704F110004D4B9847002836
:103D7000EFD04FF0E0234FF08052C3F8042DBFF393
:103D80004F8FBFF36F8FE4E746B14FF0500383F3DB
:103D90001188BFF36F8FBFF34F8FFEE73E4B9847FD
:103DA000DAE702A83F4B984701252AE0002384F870
:103DB000443032E0002384F8453034E03A4B9847F1
:103DC00060683A4B98470646334B98473BE020469D
:103DD000374B9847374B984709E02046344B984774
:103DE000344B98472046344B9847002842D12E4BFD
:103DF0009847A36B002BA6D1019B002BC4D0002DAC
:103E0000CFD0254B98472D4B9847274B984794F890
:103E100044305BB2B3F1FF3FC8D094F845305BB299
:103E2000B3F1FF3FC6D01C4B984701A902A8244B11
:103E300098470028D1D120461F4B98470028C6D06C
:103E40002368002BBAD0019904F124001D4B984738
:103E50002046174B9847174B98470028C7D14FF07B
:103E6000E0234FF08052C3F8042DBFF34F8FBFF310
:103E70006F8FBCE70EB900266EE70B4B98472046C4
:103E8000114B984701466068104B9847024B984782
:103E9000F1E700BFC54A0008B9580008C54C000842
:103EA0007D490008114A000875580008E54A0008D5
:103EB000653600080D47000899350008CD45000813
:103EC000294A000805490008613500081D4C000812
:103ED00070B584B0019290B10E460446C1B1544B06
:103EE0009847054600BB019B002B5ED04FF0500366
:103EF00083F31188BFF36F8FBFF34F8FFEE74FF04F
:103F0000500383F31188BFF36F8FBFF34F8FFEE72A
:103F1000036C002BE3D04FF0500383F31188BFF301
:103F20006F8FBFF34F8FFEE700253EE0E568314617
:103F30002046404B9847E560636A23B93E4B98475B
:103F4000012004B070BD04F124003C4B98470028C8
:103F5000F4D04FF0E0234FF08052C3F8042DBFF3AC
:103F60004F8FBFF36F8FE9E7334B98470020E8E7A7
:103F700002A8334B9847012521E0002384F8443000
:103F800029E0002384F845302BE020462D4B98474C
:103F90002D4B984709E020462A4B98472A4B9847D3
:103FA00020462A4B984700283FD1294B9847A36BBE
:103FB000002BBBD1019B002BD6D0002DD8D01E4B9F
:103FC0009847244B9847224B984794F844305BB26B
:103FD000B3F1FF3FD1D094F845305BB2B3F1FF3F6E
:103FE000CFD0154B984701A902A81B4B9847002832
:103FF000D1D12046154B98470028C6D0019904F12D
:104000002400164B984720460E4B98470E4B984776
:104010000028CAD14FF0E0234FF08052C3F8042D9E
:10402000BFF34F8FBFF36F8FBFE7002089E700BF5B
:10403000C54A00083D360008B95800087D49000807
:10404000114A0008653600080D4700089935000838
:1040500075580008CD450008294A000805490008A0
:104060000023072B0CD8074A52F833200AB101333A
:10407000F7E7044A42F8331002EBC3035860704775
:10408000704700BF4C01002070B504460D4616462F
:10409000124B984794F844305BB2B3F1FF3F0DD018
:1040A00094F845305BB2B3F1FF3F0BD00C4B98470F
:1040B000A36B5BB120460B4B984770BD002384F87F
:1040C0004430EDE7002384F84530EFE732462946D7
:1040D00004F12400044B9847ECE700BF7558000832
:1040E000B9580008653600083D490008084B1B68B0
:1040F0001B6823B9074B4FF0FF321A607047044B1F
:104100001B68DB68DB685A68024B1A60704700BFA7
:10411000900100203C0600202DE9F84F80460D4616
:10412000174699460A9EDDF82CA00C9C9200A5210A
:10413000206B204B9847236B07F18042013A03EB39
:10414000820727F007074FF0000CBCF10F0F0BD8C8
:1041500015F80C2004EB0C0383F8342015F80C3010
:1041600013B10CF1010CF0E7002384F84330372E33
:1041700000D93726E662E66400252565201DDFF8B4
:1041800038B0D84704F11800D8472461C6F1380682
:10419000A6616462656584F858504A4641463846CF
:1041A000064B98472060BAF1000F01D0CAF80040D2
:1041B000BDE8F88FBD610008ED3400082158000803
:1041C00070B5002407E004EB840293000C48184407
:1041D0000C4B98470134372CF5D90B4E3046094C1F
:1041E000A0470A4D2846A0470948A0470948A047CC
:1041F0000948A047094B1E60094B1D6070BD00BFF8
:1042000098010020D7340008100600202406002062
:1042100044060020700600205C060020900100206B
:104220009401002010B50446234B9847234A136895
:1042300001331360224B1B685BB1224B1B686BB9C7
:104240001F4B1B68DA6AE36A9A4207D81C4B1C6052
:1042500004E01B4B1C601368012B29D01A4A136819
:10426000013313606364E06A184B1B68984201D9FC
:10427000164B186000EB8000211D154B03EB8000EE
:10428000144B9847144B98470E4B1B687BB10C4B53
:104290001B68DA6AE36A9A4209D24FF0E0234FF0D2
:1042A0008052C3F8042DBFF34F8FBFF36F8F10BD43
:1042B0000A4B9847D2E700BF75580008F805002060
:1042C0008C01002058060020080600200C06002063
:1042D00098010020F3340008B9580008C1410008D3
:1042E00038B5044690F8593063B1012B10D0022B39
:1042F0000DD04FF0500383F31188BFF36F8FBFF3DE
:104300004F8FFEE7006B044DA8472046A84738BDF5
:10431000014B9847FBE700BF455700080F4B1B6850
:10432000D3B110B50E4B98470E4BDB68DC68201DEF
:104330000D4B98470D4A1368013B1360074A1368F9
:10434000013B13600A4B984720460A4B9847034BA2
:104350001B68002BE6D110BD704700BFFC05002094
:1043600075580008700600203B350008F80500204D
:10437000B9580008E142000808B5084B9847084BB7
:104380001B68012BF9D94FF0E0234FF08052C3F89E
:10439000042DBFF34F8FBFF36F8FEEE71D4300086F
:1043A0009801002070B504460D46174B1E68174B48
:1043B00018680430164B9847B4F1FF3F0DD03444D1
:1043C000124B1B685C60A64210D9124B18680F4B49
:1043D00019680431104B984770BD002DEFD00B4B7E
:1043E000196804310D480E4B9847F5E70D4B1868D6
:1043F000064B19680431084B98470B4B1B68A342C6
:10440000EAD9094B1C60E7E7840600208C010020F4
:104410003B35000894010020093500085C060020A7
:10442000F3340008900100203C06002030B587B02E
:104430000B9C7CB10C9DB5B15C250495049D5C2D55
:104440001AD04FF0500383F31188BFF36F8FBFF37F
:104450004F8FFEE74FF0500383F31188BFF36F8F48
:10446000BFF34F8FFEE74FF0500383F31188BFF384
:104470006F8FBFF34F8FFEE70C9D2C63022485F8EE
:10448000594000240394029505AC01940A9C0094C1
:10449000034CA0470C98034B9847059807B030BDD4
:1044A00019410008254200082DE9F04385B0054672
:1044B0000E46144698469000154A904700B3814630
:1044C0005C20134B98470746B0B1C0F83090E7B175
:1044D000002387F85930039302970D9B01930C9B9F
:1044E000009343462246314628460A4CA0473846A8
:1044F000094B9847012005E04846084B9847E6E7F6
:104500004FF0FF3005B0BDE8F0834FF0FF30F9E722
:104510004556000819410008254200084557000883
:1045200010B588B000240594069407AA06A905A82A
:104530001C4B9847059B0293069B019300942346CE
:10454000079A194919481A4CA0471A4B186040B1EC
:10455000194B9847012806D0B0F1FF3F18D008B09A
:1045600010BD0020F6E74FF0500383F31188BFF32E
:104570006F8FBFF34F8F114B4FF0FF321A60104B0C
:1045800001221A600F4B00221A600F4B9847E6E792
:104590004FF0500383F31188BFF36F8FBFF34F8F3A
:1045A000FEE700BF51550008446300087943000846
:1045B0002D44000838060020754F00083C060020F6
:1045C00058060020840600208D590008024A13680E
:1045D00001331360704700BF04060020014B1868C8
:1045E000704700BF84060020F8B53A4B1B68002BCB
:1045F00064D1394B1D6801351D60C5B9374B1B6847
:104600001B6843B14FF0500383F31188BFF36F8FE2
:10461000BFF34F8FFEE7314A1168314B18681060C5
:104620001960304A1368013313602F4B98472F4BA2
:104630001B68AB4238D900272D4B1B68DB6A03EBA4
:1046400083039A002B4B9B58012B3CD901273AE05E
:104650000127224B1B681B6843B3204B1B68DB6898
:10466000DC6863689D4226D3261D3046224B98475E
:10467000A36A1BB104F118001F4B9847E36A1F4A55
:104680001268934201D91D4A136003EB83039A0019
:104690003146184810441A4B9847E26A144B1B687D
:1046A000DB6A9A42D4D2D4E70027D2E70F4B4FF00F
:1046B000FF321A60C0E70D4A1360BDE7114A136864
:1046C000013313600027104B1B6803B101273846E4
:1046D000F8BD00BF040600208406002090010020E1
:1046E0009401002040060020ED4000083C06002018
:1046F0008C010020980100203B3500080C060020AA
:10470000F33400080006002088060020344B1B68A4
:1047100043B94FF0500383F31188BFF36F8FBFF39A
:104720004F8FFEE770B52F4B98472D4B1A68013A13
:104730001A601B68002B4ED12B4B1B680BB9002451
:104740004AE00024294B1B6813B3284BDB68DC6864
:1047500004F11800264EB047251D2846B047E06AF0
:10476000244B1B68984201D9224B186000EB800053
:104770002946214B03EB8000204B9847E26A204BEF
:104780001B68DB6A9A42DDD31E4B01221A60D9E70F
:104790000CB11D4B98471D4B1C6884B9194B1C6804
:1047A000D4B14FF0E0234FF08052C3F8042DBFF393
:1047B0004F8FBFF36F8F01240EE0013C07D0144BE5
:1047C00098470028F9D00F4B01221A60F5E70F4BEC
:1047D00000221A60E2E700240E4B9847204670BD85
:1047E0000406002075580008F80500204406002043
:1047F0003B3500080C06002098010020F334000827
:104800008C01002088060020ED40000800060020F2
:10481000E9450008B958000810B5A8B10446104B86
:104820001B6843B14FF0500383F31188BFF36F8FC0
:10483000BFF34F8FFEE70B4B9847002120460A4BF2
:1048400098470A4B984748B94FF0E0234FF0805201
:10485000C3F8042DBFF34F8FBFF36F8F10BD00BFA0
:1048600004060020CD450008A54300080D470008B8
:104870001F4B1B681BB11F4B01221A6070471D4B59
:1048800000221A601C4B1B6803EB83018A001B4942
:104890008A585AB90BB1013BF6E74FF0500383F346
:1048A0001188BFF36F8FBFF34F8FFEE703EB8300D9
:1048B00082000A4450684068506003EB830C4FEA62
:1048C0008C020832114488420BD003EB8302910022
:1048D0000A4A0A445268D168094A1160064A1360BC
:1048E0007047406862469100044A0A445060ECE711
:1048F00004060020880600200C06002098010020F5
:104900008C01002058B110B50C46094A11681831C5
:10491000084B984701212046074B984710BD4FF0A0
:10492000500383F31188BFF36F8FBFF34F8FFEE700
:104930008C01002009350008A543000838B570B186
:104940000D4614460A4A116818310A4B98470CB1B3
:104950004FF0FF3521462846074B984738BD4FF0AA
:10496000500383F31188BFF36F8FBFF34F8FFEE7C0
:104970008C010020F3340008A543000838B5C36853
:10498000DC6824B304F118052846194B9847194BE5
:104990001B682BBB251D2846154B9847E06A164B14
:1049A0001B68984201D9144B186000EB800029461F
:1049B000124B03EB8000124B9847E26A114B1B68C5
:1049C000DB6A9A4211D901200F4B186038BD4FF0B5
:1049D000500383F31188BFF36F8FBFF34F8FFEE750
:1049E00029460A48064B9847E7E70020EEE700BF54
:1049F0003B350008040600200C060020980100202A
:104A0000F33400088C0100208806002044060020B2
:104A1000034B1B680360034B1B684360704700BF78
:104A20004006002084060020D8B170B50C4605462B
:104A300001B31C4B98471C4B19686B68C81A226855
:104A4000B2F1FF3F27D0194E3668D5F800C0B44503
:104A500001D08B4224D9824215D80023236001243F
:104A60001AE04FF0500383F31188BFF36F8FBFF349
:104A70004F8FFEE74FF0500383F31188BFF36F8F22
:104A8000BFF34F8FFEE75B1A134423602846084BA1
:104A90009847002400E00024064B9847204670BD4C
:104AA0000124F9E77558000884060020400600201C
:104AB000114A0008B9580008014B01221A607047DA
:104AC00088060020054B1B6833B1054B1B680BB1F2
:104AD00000207047022070470120704758060020D0
:104AE0000406002000283FD038B50446C36A204A97
:104AF0001268D26A93422FD28269002A05DB1C4ACF
:104B00001268D26AC2F138028261616903EB8303E1
:104B1000184A02EB8303994205D0154B1B68DB6AE8
:104B2000E362012038BD251D2846134B9847104BE2
:104B30001B68D86AE062114B1B68984209D800EBE9
:104B4000800029460B4B03EB80000D4B984701205A
:104B5000E8E70A4B1860F2E7C26C054B1B68DB6A9A
:104B60009A4203D30020DDE7002070470120D9E7F7
:104B70008C010020980100203B3500080C06002025
:104B8000F334000800283BD038B504461E4B1B68A0
:104B9000834208D04FF0500383F31188BFF36F8F27
:104BA000BFF34F8FFEE7036D43B94FF0500383F31C
:104BB0001188BFF36F8FBFF34F8FFEE7013B036593
:104BC000C16AC26C91421DD00BB1002038BD051DD9
:104BD00028460E4B9847E06CE062C0F13803A361B1
:104BE0000B4B1B68984201D9094B186000EB800001
:104BF0002946084B03EB8000074B98470120E5E767
:104C0000002070470020E1E78C0100203B350008C0
:104C10000C06002098010020F3340008002846D03C
:104C200038B50446036D43B94FF0500383F3118840
:104C3000BFF36F8FBFF34F8FFEE7C26C8A4200D283
:104C40000A46E16A914201D0012B00D038BD184BD1
:104C50001B68A34222D0E262A369002B02DBC2F1EF
:104C60003802A261626901EB8101124B03EB810101
:104C70008A42EBD1251D28460F4B9847E06A0F4B1F
:104C80001B68984201D90D4B186000EB8000294643
:104C9000084B03EB80000A4B9847D7E74FF05003CF
:104CA00083F31188BFF36F8FBFF34F8FFEE7704719
:104CB0008C010020980100203B3500080C060020E4
:104CC000F3340008054B1B6823B1044B1A68136DBD
:104CD00001331365014B1868704700BF8C01002039
:104CE00038B504460D461B4B98471B4B1B685B6D44
:104CF0002BB9194B1B68012283F85820ADB9174B0B
:104D00009847144B9847144B1B685D6D25B1DCB177
:104D1000114B1B6800225A650F4B1B68002283F859
:104D200058200E4B9847284638BD114628460C4B54
:104D300098474FF0E0234FF08052C3F8042DBFF3A3
:104D40004F8FBFF36F8FDAE7034B1B686A1E5A65FC
:104D5000E2E700BF755800088C010020B958000830
:104D6000A5430008F8B5D8B10D4604462B4B98472B
:104D7000EFF311864FF0500383F31188BFF36F8F69
:104D8000BFF34F8F94F85830DBB2022284F85820DA
:104D9000626D01326265012B0BD086F31188F8BD7C
:104DA0004FF0500383F31188BFF36F8FBFF34F8F22
:104DB000FEE7A36A43B14FF0500383F31188BFF3BA
:104DC0006F8FBFF34F8FFEE7154B1B68E3B9271DAD
:104DD0003846144B9847E06A134B1B68984201D938
:104DE000114B186000EB80003946104B03EB80003C
:104DF0000F4B9847E26A0F4B1B68DB6A9A42CCD98B
:104E000045B101232B60C8E704F118010A48084B9B
:104E10009847EFE7094B01221A60BEE7455A0008A0
:104E2000040600203B3500080C06002098010020F5
:104E3000F33400088C01002044060020880600207E
:104E4000064B1A681368B3FA83F35B09036013B95E
:104E5000D368186870470020704700BF8C06002098
:104E600008B54160006191420CD8D21A83699A4218
:104E700001D3012008BD011D094B1868094B984753
:104E80000020F7E79A4201D2994206D2011D064B53
:104E90001868044B98470020ECE70120EAE700BFC0
:104EA00090060020093500088C06002070B582B0FD
:104EB000114B9847114B1B681BB1114B984702B01F
:104EC00070BD104D2846104EB047104C2046B047DC
:104ED0000F4B1D600F4B1C60002300930E4B0F4ABD
:104EE00010210A200E4CA047044B18600028E4D083
:104EF0000C490D4B9847E0E775580008B0070020B3
:104F0000B958000834070020D734000848070020AB
:104F10008C060020900600206007002094060020E8
:104F2000A13700084C630008614000082DE9F041FA
:104F3000079E41B94FF0500383F31188BFF36F8F81
:104F4000BFF34F8FFEE7074615461C4688465EB105
:104F5000064B98473760C6F81880F5613462069BA7
:104F60007362301D024B9847BDE8F081AD4E0008DA
:104F7000ED34000810B588B0134B9847134B1B68ED
:104F8000CBB100240594069407AA06A905A8104BE6
:104F90009847059B0293069B0193022300932346A7
:104FA000079A0C490C480D4CA0470D4B186010B1E6
:104FB000012008B010BD4FF0500383F31188BFF3F8
:104FC0006F8FBFF34F8FFEE7AD4E0008B007002094
:104FD00069550008546300085D5300082D4400081B
:104FE000B40700202DE9F04182B004460D469046FA
:104FF0001E463020094B9847074658B10190089B40
:1050000000933346424629462046054CA0470023DC
:1050100087F82C30384602B0BDE8F08145560008CC
:105020002D4F0008B8B19C4603461848006850B39D
:1050300010B584B000910192029305291CDC144B39
:105040009847022810D000231A4669460F48006886
:10505000104CA04715E04FF0500383F31188BFF3C5
:105060006F8FBFF34F8FFEE70023069A694607480C
:105070000068084CA04704E0002362466946064CDD
:10508000A04704B010BD0020704700BFB00700204B
:10509000C54A000891380008853A000870B582B00A
:1050A0001B4B1B681A68002A2AD0DB681E68DC6864
:1050B000251D2846174B9847636A20469847E369A1
:1050C000012BEDD1A36933449E4207D26360246172
:1050D00029460F4B1868104B9847E1E700210091D3
:1050E0000B46324620460D4CA0470028D8D14FF041
:1050F000500383F31188BFF36F8FBFF34F8FFEE729
:10510000074A106802490860136002B070BD00BF12
:105110008C0600203B3500080935000825500008A2
:105120009006002038B50546084B98470446084BC2
:105130001B68834205D800232B60054B1C6020466A
:1051400038BD044B984701232B60F6E7DD45000886
:105150005C0700209D50000870B582B005460E46E1
:10516000144B1B68DB68DC68201D134B9847E36910
:10517000012B04D0636A2046984702B070BDA16934
:105180002B463246294420460C4EB0470028F1D029
:10519000002100910B462A462046094DA8470028C9
:1051A000E8D14FF0500383F31188BFF36F8FBFF343
:1051B0004F8FFEE78C0600203B350008614E00084B
:1051C0002550000870B582B006460C46184B98472B
:1051D00001A8184B9847019B2BBB05460CB9B04260
:1051E0001AD22CB1144B1B681C68B4FA84F46409FD
:1051F0002246711B114B1868114B9847114B984769
:1052000098B94FF0E0234FF08052C3F8042DBFF35C
:105210004F8FBFF36F8F08E00A4B984729463046FF
:10522000094B984701E0074B984702B070BD00BF9B
:10523000CD4500082551000890060020B007002049
:10524000894000080D4700085951000830B589B061
:1052500002E0049B002B0FDA002204A9384B1868E7
:10526000384B9847002869D0049B002BF1DA079946
:105270000698059B9847ECE7069C636913B1201DCF
:10528000314B984703A8314B9847049B092BE3D82F
:1052900001A252F823F000BFC1520008C152000819
:1052A000C152000859520008075300082D53000846
:1052B000C1520008C15200085952000807530008A3
:1052C000059BA169024619442046214DA8470028A4
:1052D000C2D0636A20469847E369012BBCD1A2691A
:1052E000002100910B46059802442046194CA04726
:1052F0000028B1D14FF0500383F31188BFF36F8FB3
:10530000BFF34F8FFEE70599A16131B10346024615
:10531000014420460E4CA0479EE74FF0500383F314
:105320001188BFF36F8FBFF34F8FFEE794F82C30D7
:10533000002B91D12046084B98478DE709B030BD2E
:10534000B00700205D3B00083B35000825510008F0
:10535000614E0008255000084557000800B583B08D
:1053600001A8044B98470199034B9847034B984772
:10537000F6E700BF414E0008C55100084D52000835
:10538000EFF3058393B9EFF3108393B90C4B1868CF
:10539000022804D080B90A4B01221A607047EFF34B
:1053A0001183002BF6D06FF0050070476FF00500F9
:1053B00070476FF0050070474FF0FF30704700BF37
:1053C000140A002008B5EFF30583B3B9EFF3108397
:1053D000B3B90E4B1B68022B08D0012B13D10B4B1A
:1053E00002221A600A4B9847002008BDEFF3118291
:1053F000002AF2D06FF00500F7E76FF00500F4E740
:105400006FF00500F1E74FF0FF30EEE7140A0020DF
:1054100021450008F0B587B000240494EFF305841B
:10542000002C43D1EFF31083002B3FD1334B1B688B
:10543000022B16D0002839D000238DF8173062B324
:10544000156895B1936903B918235C1E372C51D8A0
:10545000546814F0010F4FD156694EB14FEA960CC3
:1054600008E0EFF311830BBBE4E70DF11705E9E763
:105470004FF0800C94682CB1D7685B2F02D9176964
:1054800007B1B6B914B14FF0FF340CE0D46894B949
:1054900014699CB14FF0FF3405E0002418234FF04D
:1054A000800C0DF11705012C0AD0ACB1049807B09F
:1054B000F0BD0124F7E74FF0FF34F4E70024F2E7F2
:1054C000146992680292019400930B466246294641
:1054D0000B4CA0470490E9E704AA019200930B4605
:1054E0001FFA8CF22946074CA0470128DED0002382
:1054F0000493DBE70020DAE70020D8E7140A002055
:105500002D440008A944000808B5EFF30583A3B9AA
:10551000EFF31083A3B90C4B1B68022B02D040B9E8
:10552000002008BDEFF31183002BF8D06FF00500C9
:10553000F7E7064B98470020F3E76FF00500F0E728
:105540006FF00500EDE700BF140A002019480008BD
:10555000034B0360034B0B6080231360704700BF55
:10556000B8090020B8070020034B0360034B0B6011
:105570004FF4807313607047180E0020180A002043
:10558000124A12F0070F1ED0D11D21F00701C1F5FC
:10559000805313440A460E480260002141601344C0
:1055A000083B23F007030B48036059601960991A00
:1055B00051601360084B1960084B1960084B4FF09D
:1055C00000421A6070474FF48053E4E7780E0020E1
:1055D000841E0020740E0020801E00207C1E0020EF
:1055E000781E0020154B1A461B688342FBD3516876
:1055F00002EB010C844509D0416800EB010C6345C6
:1056000009D00360904218D0106070474068014490
:1056100051601046F0E710B4094C2468A3420AD048
:105620005B681944416013681B680360904200D0B6
:10563000106010BC70470460F8E77047841E0020BB
:10564000740E002070B50546354B9847354B1B68E6
:10565000A3B1354B1B681D424AD135B1083515F051
:10566000070F02D025F007050835002D42D02F4B3B
:105670001B68AB424DD32E4A146804E02D4B98476B
:10568000E7E722461C466368AB4202D22368002B40
:10569000F7D1244B1B68A3423DD016680836236817
:1056A000136063685B1B102B10D9601910F0070F93
:1056B00008D04FF0500383F31188BFF36F8FBFF30F
:1056C0004F8FFEE7436065601B4B98476268174940
:1056D0000B689B1A0B60194909688B4201D2174964
:1056E0000B60114B1B68134363600023236002E0CF
:1056F000002600E00026124B984716F0070F0CD04A
:105700004FF0500383F31188BFF36F8FBFF34F8FB8
:10571000FEE70026EFE70026EDE7304670BD00BF4C
:10572000CD450008740E0020781E00207C1E00204D
:10573000841E002081550008E5550008801E0020C9
:105740000D470008002830D038B50446A0F1080500
:1057500050F8043C154A1268134208D14FF0500328
:1057600083F31188BFF36F8FBFF34F8FFEE750F8BD
:10577000081C41B14FF0500383F31188BFF36F8FC2
:10578000BFF34F8FFEE723EA020340F8043C084BC7
:10579000984754F8041C074A13680B4413602846C2
:1057A000054B9847054B984738BD7047781E002039
:1057B000CD4500087C1E0020E55500080D47000877
:1057C00082B0002301930D4B1B68B3F1FF3F08D05B
:1057D0004FF0500383F31188BFF36F8FBFF34F8FE8
:1057E000FEE74FF0500383F31188BFF36F8FBFF3D1
:1057F0004F8F019B002BFCD002B070470C000020A3
:1058000006480068006880F3088862B661B6BFF396
:105810004F8FBFF36F8F00DF00BF000008ED00E087
:105820004FF0807340F8043C21F0010140F8081C5F
:10583000034B40F80C3C40F8202C4038704700BF28
:10584000C157000800000000000000000000000038
:10585000074B19680868B0E8F00F80F30988BFF3B8
:105860006F8F4FF0000080F311884EF00D0E7047DF
:105870008C0100204FF0500383F31188BFF36F8F2A
:10588000BFF34F8F0B4A136801331360012B00D015
:1058900070474FF0E023D3F8043D13F0FF0FF7D02B
:1058A0004FF0500383F31188BFF36F8FBFF34F8F17
:1058B000FEE700BF0C000020094B1B6843B94FF006
:1058C000500383F31188BFF36F8FBFF34F8FFEE751
:1058D000013B034A13600BB983F31188704700BF83
:1058E0000C0000200000000000000000000000008C
:1058F000EFF30980BFF36F8F0D4B1A6820E9F00FAB
:1059000010602DE908404FF0500080F31188FEF739
:10591000AFFF4FF0000080F31188BDE80840196820
:105920000868B0E8F00F80F30988BFF36F8F704705
:105930008C01002008B54FF0500383F31188BFF3AA
:105940006F8FBFF34F8F064B984728B14FF0E0237E
:105950004FF08052C3F8042D002383F3118808BD53
:10596000E94500084FF0E022002313619361054BE5
:105970001B680549A1FB03139B09013B53610723E6
:105980001361704708000020D34D621010B582B03B
:10599000244B1A78D2B20192FF221A701B78DBB224
:1059A0008DF803309DF8033003F050031E4A137046
:1059B0001E4B07221A6009E01C4A1368013B136062
:1059C0009DF803305B00DBB28DF803309DF80330A7
:1059D00013F0800FF0D1154A13681B02136003F413
:1059E000E0631360019BDBB20E4A13704FF0E023BB
:1059F000D3F8202D42F47002C3F8202DD3F8202DC7
:105A000042F07042C3F8202D094B98470024094BFF
:105A10001C60094B9847094B9847094B984720460B
:105A200002B010BD00E400E08C1E0020901E00209B
:105A3000655900080C000020015800087148000852
:105A4000C1570008EFF305830F2B0FD9114A9B5C58
:105A5000DBB2114A12789A4208D94FF0500383F30F
:105A60001188BFF36F8FBFF34F8FFEE74FF0E02336
:105A7000D3F80C3D03F4E063084A1268934208D956
:105A80004FF0500383F31188BFF36F8FBFF34F8F35
:105A9000FEE77047F0E300E08C1E0020901E00201F
:105AA00000B585B000230193029303931148124A75
:105AB00002608360037303754FF46022C261436028
:105AC000012303610D4B984768B907230193012314
:105AD00002930023039301A90648094B984728B96C
