:020000040800F2
:10000000002800206101000889010008890100081A
:100010008901000889010008890100088901000898
:100020008901000889010008890100088901000888
:100030008901000889010008890100088901000878
:100040008901000889010008890100088901000868
:100050008901000889010008890100088901000858
:100060008901000889010008890100088901000848
:100070008901000889010008890100088901000838
:100080008901000889010008890100088901000828
:100090008901000889010008890100088901000818
:1000A0008901000889010008890100088901000808
:1000B00089010008890100088901000889010008F8
:1000C00089010008890100088901000889010008E8
:1000D00089010008890100088901000889010008D8
:1000E00089010008890100088901000889010008C8
:1000F00089010008890100088901000889010008B8
:1001000089010008890100088901000889010008A7
:100110008901000889010008890100088901000897
:100120008901000889010008890100088901000887
:100130008901000889010008890100088901000877
:100140008901000889010008890100088901000867
:1001500080B400AF014B00221A60FEE718000020B7
:1001600006480749074A884205D052F8043B40F840
:10017000043B8842F9D3FFF7EBBFFEE70000002005
:0A01800015000020A2010008FEE7B0
:10018C00564D413A464C4153482C204C4D413A2057
:06019C00464C41534800EF
:1001A200564D413A5352414D2C204C4D413A204636
:0501B2004C4153480020
:04000005080001509E
:00000001FF
