:020000040800F2
:10000000002800208D0E0008CD020008CF02000855
:10001000D1020008D3020008D50200080000000049
:10002000000000000000000000000000D7020008EF
:10003000D902000800000000DB020008DD02000811
:10004000F5020008F7020008F9020008D50E0008C2
:10005000D50E0008D50E0008D50E0008D50E0008F4
:10006000D50E0008D50E0008D50E0008D50E0008E4
:10007000D50E0008D50E0008D50E0008D50E0008D4
:10008000D50E0008D50E0008D50E0008D50E0008C4
:10009000D50E0008D50E0008D50E0008D50E0008B4
:1000A000D50E0008E1020008D50E0008D50E0008A4
:1000B000D50E0008D50E000800000000D50E00087F
:1000C000D50E00080000000000000000D50E00085A
:1000D00000000000D50E0008D50E0008000000004A
:1000E000D50E0008D50E0008D50E0008000000004F
:1000F0000000000000000000000000000000000000
:0C01000000000000000000005FF808F1A3
:10010C0010B5054C237833B9044B13B10448AFF345
:10011C0000800123237010BD0C00002000000000A3
:10012C00300F000808B5034B1BB103490348AFF36C
:10013C00008008BD0000000010000020300F0008F7
:10014C0000F00700C0F1070CBCF1040F28BF4FF002
:10015C00040C031D062B0CD9C31E4FF0FF3000FA04
:10016C000CFC21EA0C019940984022EA000008435B
:10017C0070470023F1E7000008B50268034B9A4270
:10018C0000D008BD024B9847FBE700BF002C014094
:10019C008906000872B6FEE700B591B0282200214E
:1001AC0006A8124B984700230193029303930493E0
:1001BC0005930223069301230A9310230B9306A89D
:1001CC000B4B984768B90F230193002102910391BF
:1001DC000491059101A8074B984720B911B05DF81F
:1001EC0004FB054B9847044B984700BF210F0008B0
:1001FC00D9060008650B0008A1010008F8B52A4BC8
:10020C0098472A4B98472A4AD36823F4E0631B0487
:10021C001B0C43F0052343F47A03D360D568C5F374
:10022C000225022201212846224EB0470301DBB2EF
:10023C00214C84F8003301272760002239462846D8
:10024C00B0470301DBB284F80133022323603A4642
:10025C0039462846B0470301DBB284F80233042345
:10026C002360D4F8003143F00703C4F80031134B7A
:10027C001B68FB40013BB3F1807F0AD24FF0E022B8
:10028C0053610B4BF02183F8231000239361072358
:10029C001361002211462846064B98470301DBB236
:1002AC00034A82F82330FEE759060008A50100082E
:1002BC0000ED00E04D01000800E100E00800002026
:1002CC00FEE7FEE7FEE7FEE7FEE770477047704784
:1002DC007047000008B50248024B984708BD00BFA4
:1002EC002C000020F903000870477047704700008D
:1002FC0010B582B01E4B9A6942F001029A619A695C
:10030C0002F001020092009ADA6942F08052DA613E
:10031C00DB6903F080530193019B0520154B984733
:10032C00002202216FF00B00134CA0470022022187
:10033C006FF00A00A047002202216FF00900A047CD
:10034C00002202216FF00400A047002202216FF06E
:10035C000300A047002202216FF00100A047074ACA
:10036C00536823F0E06343F08063536002B010BD28
:10037C0000100240490D00086D0D000800000140FE
:10038C007047000090F83D30DBB2012B23D10223E3
:10039C0080F83D300268D36843F00103D3600368F2
:1003AC000F4A93420CD0B3F1804F09D0A2F594328E
:1003BC00934205D01A6842F001021A60002070477F
:1003CC009A6802F00702062A07D01A6842F0010266
:1003DC001A6000207047012070470020704700BF52
:1003EC00002C0140704770477047704710B50446A9
:1003FC0003681A6912F0020F11D0DA6812F0020FBA
:10040C000DD06FF002021A610123037703689B6918
:10041C0013F0030F70D0544B9847002323772368B5
:10042C001A6912F0040F12D0DA6812F0040F0ED011
:10043C006FF004021A610223237723689B6913F47B
:10044C00407F5FD02046484B984700232377236892
:10045C001A6912F0080F12D0DA6812F0080F0ED0D9
:10046C006FF008021A61042323772368DB6913F009
:10047C00030F4ED020463C4B98470023237723682C
:10048C001A6912F0100F12D0DA6812F0100F0ED099
:10049C006FF010021A61082323772368DB6913F4C9
:1004AC00407F3DD02046304B98470023237723686C
:1004BC001A6912F0010F03D0DA6812F0010F36D16D
:1004CC0023681A6912F0800F03D0DA6812F0800FDB
:1004DC0034D123681A6912F0400F03D0DA6812F095
:1004EC00400F32D123681A6912F0200F03D0DA685A
:1004FC0012F0200F30D110BD1C4B984720461C4BDE
:10050C0098478AE72046194B98472046184B98473E
:10051C009BE72046154B98472046154B9847ACE770
:10052C002046124B98472046114B9847BDE76FF079
:10053C0001021A6120460F4B9847C1E76FF0800209
:10054C001A6120460C4B9847C3E76FF040021A61C2
:10055C0020460A4B9847C5E76FF020021A612046E7
:10056C00074B9847C7E700BFF3030008F1030008E7
:10057C00F50300088501000857060008F70300087A
:10058C00550600080368174A904206D0B0F1804F18
:10059C0003D0A2F59432904203D123F070034A6841
:1005AC001343104A904206D0B0F1804F03D0A2F50D
:1005BC009432904203D123F44073CA68134323F05E
:1005CC0080034A69134303608B68C3620B688362C0
:1005DC00044B984202D00123436170470B690363BB
:1005EC00F9E700BF002C014040B310B5044690F869
:1005FC003D30F3B1022384F83D30214651F8040B11
:10060C000F4B9847012384F8463084F83E3084F829
:10061C003F3084F8403084F8413084F8423084F81C
:10062C00433084F8443084F8453084F83D30002061
:10063C0010BD80F83C30034B9847DBE70120704736
:10064C00910500088D0300087047704708B5074AEC
:10065C00136843F0100313600320054B98470020E8
:10066C00044B9847044B9847002008BD00200240DB
:10067C00490D0008FD0D0008FD020008034A116831
:10068C00034B1B780B441360704700BF28000020FD
:10069C0000000020014B1868704700BF28000020A4
:1006AC0082B0084B1B68084AA2FB03235B0A00FBC1
:1006BC0003F3019300BF019B5A1E0192002BF9D149
:1006CC0002B0704708000020D34D6210002800F0E3
:1006DC00F58170B582B00446036813F0010F2CD07D
:1006EC008F4B5B6803F00C03042B1DD08C4B5B68A9
:1006FC0003F00C03082B12D06368B3F5803F41D094
:10070C00002B55D103F1804303F504331A6822F40E
:10071C0080321A601A6822F480221A6037E0804B0B
:10072C005B6813F4803FE7D07D4B1B6813F4003FEC
:10073C0003D06368002B00F0C381236813F0020F11
:10074C0075D0774B5B6813F00C0F5FD0744B5B6804
:10075C0003F00C03082B54D02369002B00F08A8083
:10076C00704B01221A60704B984705466C4B1B6806
:10077C0013F0020F75D16C4B9847401B0228F5D92A
:10078C000320A2E1664A136843F480331360636864
:10079C0043B3654B98470546614B1B6813F4003F08
:1007AC00CBD1614B9847401B6428F5D903208CE1D1
:1007BC00B3F5A02F09D05A4B1A6822F480321A6074
:1007CC001A6822F480221A60E1E703F18043A3F552
:1007DC003C331A6842F480221A601A6842F4803260
:1007EC001A60D4E7504B984705464D4B1B6813F4E1
:1007FC00003FA2D04C4B9847401B6428F5D90320EE
:10080C0063E1474B5B6813F4803FA5D1444B1B68F5
:10081C0013F0020F03D02369012B40F05381404A9F
:10082C00136823F0F803616943EAC103136023687A
:10083C0013F0080F33D0A369002B5CD0394B012285
:10084C00C3F88024384B98470546354B5B6A13F048
:10085C00020F21D1344B9847401B0228F5D90320B5
:10086C0033E12F4A136823F0F803616943EAC103AB
:10087C001360DCE72B4B00221A602B4B9847054684
:10088C00274B1B6813F0020FD1D0274B9847401B06
:10089C000228F5D9032018E10120244B984723683E
:1008AC0013F0040F00F09A801D4BDB6913F0805F8E
:1008BC0034D11B4BDA6942F08052DA61DB6903F008
:1008CC0080530193019B0125194B1B6813F4807F06
:1008DC0030D0E368012B41D0002B57D103F180437A
:1008EC0003F504331A6A22F001021A621A6A22F022
:1008FC0004021A6237E00B4B0022C3F880240A4B27
:10090C0098470546064B5B6A13F0020FC7D0064B9F
:10091C009847401B0228F5D90320D6E00025D3E7E1
:10092C000010024000004242A1060008AD0600087B
:10093C0000700040694A136843F480731360684B7D
:10094C0098470646654B1B6813F4807FC1D1644BF6
:10095C009847801B6428F5D90320B6E0614A136AD6
:10096C0043F001031362E36833B35D4B98470646CB
:10097C005C4B1B6A13F0020F2FD1594B9847801B0D
:10098C0041F288339842F3D903209EE0052B09D01D
:10099C00544B1A6A22F001021A621A6A22F00402FB
:1009AC001A62E0E74F4B1A6A42F004021A621A6AA2
:1009BC0042F001021A62D6E7494B98470646494B6A
:1009CC001B6A13F0020F08D0454B9847801B41F26D
:1009DC0088339842F3D9032077E0E5B9E369002B1B
:1009EC0072D0404A526802F00C02082A56D0022BF0
:1009FC0017D03D4B00221A66394B98470446394BA9
:100A0C001B6813F0007F47D0354B9847001B02281A
:100A1C00F5D9032059E0334AD36923F08053D361CD
:100A2C00DCE7314B00221A662D4B984705462D4BBF
:100A3C001B6813F0007F06D0294B9847401B0228F7
:100A4C00F5D9032041E0236AB3F5803F1AD025493C
:100A5C004B6823F47413226A606A024313434B609D
:100A6C00214B01221A661E4B984704461D4B1B68EE
:100A7C0013F0007F0ED11A4B9847001B0228F5D9B2
:100A8C00032022E0174A536823F40033A1680B4378
:100A9C005360DCE7002018E0002016E0012B16D094
:100AAC00104B5B6803F48031226A914211D103F43C
:100ABC007013626A93420ED1002006E00120704749
:100ACC00012002E0012000E0002002B070BD0120F6
:100ADC00FBE70120F9E70120F7E700BF00700040B9
:100AEC00A1060008001002400000424286B0164BDE
:100AFC000FCB0DF1180C0CE90F0040F20123ADF8EF
:100B0C000430124B5B6803F00C02082A02D0104828
:100B1C0006B07047C3F38342624412F8100C13F40E
:100B2C00803F0CD0094B5B68C3F34043634413F81C
:100B3C00143C074A02FB00F0B0FBF3F0E8E7054B6E
:100B4C0003FB00F0E4E700BF480F00080010024070
:100B5C0000127A0000093D00002800F0A08070B55A
:100B6C000D460446524B1B6803F007038B420BD215
:100B7C004F4A136823F007030B431360136803F009
:100B8C0007038B4240F08D80236813F0020F17D0BF
:100B9C0013F0040F04D0474A536843F4E0635360E6
:100BAC00236813F0080F04D0424A536843F460538F
:100BBC005360404A536823F0F003A1680B43536021
:100BCC00236813F0010F31D06368012B20D0022B66
:100BDC0025D0384A126812F0020F64D035494A68A1
:100BEC0022F0030213434B60334B98470646314BBC
:100BFC005B6803F00C036268B3EB820F16D02E4BCC
:100C0C009847801B41F288339842F0D9032045E085
:100C1C00284A126812F4003FE0D101203EE0254A38
:100C2C00126812F0007FD9D1012037E0204B1B68ED
:100C3C0003F00703AB420AD91D4A136823F00703DC
:100C4C002B431360136803F00703AB422DD12368C9
:100C5C0013F0040F06D0174A536823F4E063E168DD
:100C6C000B435360236813F0080F07D0114A5368E5
:100C7C0023F46053216943EAC10353600F4B984737
:100C8C000C4B5B68C3F303130D4AD35CD8400D4B7C
:100C9C0018600D4B18680D4B9847002070BD012053
:100CAC0070470120FAE70120F8E70120F6E700BFC2
:100CBC000020024000100240A1060008F90A0008BA
:100CCC005C0F00080800002004000020FD0D000847
:100CDC00014B1868704700BF0800002008B5054B91
:100CEC009847054B5B68C3F3C223044AD35CD840D6
:100CFC0008BD00BFDD0C0008001002406C0F00089E
:100D0C000F2303600B4B5A6802F0030242605A68CF
:100D1C0002F0F00282605A6802F4E062C2605B6822
:100D2C00DB0803F4E0630361034B1B6803F0070368
:100D3C000B6070470010024000200240074AD36845
:100D4C0023F4E0631B041B0C000200F4E06003437B
:100D5C0043F0BF6343F40033D360704700ED00E011
:100D6C0000B5194BDB68C3F30223C3F1070CBCF1CC
:100D7C00040F28BF4FF0040C03F1040EBEF1060F54
:100D8C0018D9033B4FF0FF3E0EFA0CFC21EA0C0184
:100D9C0099400EFA03F322EA0303194300280BDBF4
:100DAC000901C9B200F1604000F5614080F8001300
:100DBC005DF804FB0023E5E700F00F000901C9B260
:100DCC00024B1954F4E700BF00ED00E014ED00E015
:100DDC00002807DB00F01F02400901239340024A60
:100DEC0042F82030704700BF00E100E0704700007F
:100DFC0000B589B0014600221920174B98471920DD
:100E0C00164B9847164B9A6942F400629A619B699B
:100E1C0003F400630193019B02A903A8114B9847AB
:100E2C00114B9847114BA3FB00239B0C013B104823
:100E3C00104A026040F2E732C26043600023036153
:100E4C0083600D4B984718B1012009B05DF804FB85
:100E5C0007480A4B9847F8E76D0D0008DD0D0008B0
:100E6C00001002400D0D0008E90C000883DE1B4346
:100E7C002C000020002C0140F5050008910300080F
:100E8C000C480D490D4A002302E0D458C4500433D9
:100E9C00C4188C42F9D30A4A0A4C002301E01360AF
:100EAC000432A242FBD3FFF7A1FF00F00FF8FFF7CB
:100EBC00A5F97047000000200C0000207C0F0008F2
:100ECC000C00002074000020FEE7000070B5002626
:100EDC000C4D0D4C641BA410A64209D100F022F855
:100EEC0000260A4D0A4C641BA410A64205D170BD05
:100EFC0055F8043B98470136EEE755F8043B984704
:100F0C000136F2E7740F0008740F0008740F000824
:100F1C00780F000803460244934200D1704703F84F
:100F2C00011BF9E7F8B500BFF8BC08BC9E4670473A
:0C0F3C00F8B500BFF8BC08BC9E4670472A
:100F480002030405060708090A0B0C0D0E0F101002
:100F5800000000000000000000000000010203047F
:0C0F680006070809000000000102030455
:040F7400310100083F
:040F78000D0100085F
:0C0F7C0001000000100000000024F40040
:0400000508000E8D54
:00000001FF
