:020000040800F2
:100000000028002099020008DD010008E90100082D
:10001000F5010008010200080D020008C1020008F5
:10002000C1020008C1020008C1020008190200084C
:10003000C1020008C102000825020008CD01000825
:10004000310200083D02000849020008550200087C
:10005000C1020008C1020008C1020008C102000874
:10006000C1020008C1020008C1020008C102000864
:10007000C1020008C1020008C1020008C102000854
:10008000C1020008C1020008C1020008C102000844
:10009000C1020008C1020008C1020008C102000834
:1000A000C1020008C1020008C1020008C102000824
:1000B000C1020008C1020008C1020008C102000814
:1000C000C1020008C1020008C1020008C102000804
:1000D000C1020008C1020008C1020008C1020008F4
:1000E000C1020008C1020008C1020008C1020008E4
:1000F000C1020008C1020008C1020008C1020008D4
:10010000C1020008C1020008C1020008C1020008C3
:10011000C1020008C1020008C1020008C1020008B3
:10012000C1020008C1020008C1020008C1020008A3
:10013000C1020008C1020008C1020008C102000893
:10014000C1020008C1020008C1020008C102000883
:1001500080B400AF044B1B780133DAB2024B1A7043
:1001600000BFBD4680BC70471300002080B584B03E
:1001700000AF124B00221A70114B9847114B5B696C
:10018000104A43F0100353610E4B5B6A0D4A43F46F
:10019000802353620123FB600023BB60094B5B6932
:1001A000084A43F008035361074B7B607B681B6878
:1001B0003B60184601680EC87B60FEE71300002014
:1001C0006102000800ED00E00100008080B500AF92
:1001D000014B984700BF80BD5101000880B400AFBB
:1001E00000BFBD4680BC704780B400AF00BFBD46B5
:1001F00080BC704780B400AF00BFBD4680BC704774
:1002000080B400AF00BFBD4680BC704780B400AF73
:1002100000BFBD4680BC704780B400AF00BFBD4684
:1002200080BC704780B400AF00BFBD4680BC704743
:1002300080B400AF00BFBD4680BC704780B400AF43
:1002400000BFBD4680BC704780B400AF00BFBD4654
:1002500080BC704780B400AF00BFBD4680BC704713
:1002600080B400AF074B084A5A60064B00229A60E0
:10027000044B1B68034A43F00703136000BFBD46ED
:1002800080BC704710E000E0FF083D0080B400AF84
:1002900000BFBD4680BC704706480749074A8842F0
:1002A00005D052F8043B40F8043B8842F9D3FFF7ED
:1002B0005DBFFEE70000002013000020D802000808
:0202C000FEE757
:1002C400564D413A464C4153482C4C4D413A464CCC
:0402D400415348004A
:1002D800564D413A5352414D2C4C4D413A464C41B2
:0302E80053480078
:04000005080001509E
:00000001FF
