:020000040800F2
:100000000028002081020008C5010008D101000875
:10001000DD010008E9010008F5010008A902000857
:10002000A9020008A9020008A902000801020008AC
:10003000A9020008A90200080D020008B501000885
:100040001902000825020008310200083D020008DC
:10005000A9020008A9020008A9020008A9020008D4
:10006000A9020008A9020008A9020008A9020008C4
:10007000A9020008A9020008A9020008A9020008B4
:10008000A9020008A9020008A9020008A9020008A4
:10009000A9020008A9020008A9020008A902000894
:1000A000A9020008A9020008A9020008A902000884
:1000B000A9020008A9020008A9020008A902000874
:1000C000A9020008A9020008A9020008A902000864
:1000D000A9020008A9020008A9020008A902000854
:1000E000A9020008A9020008A9020008A902000844
:1000F000A9020008A9020008A9020008A902000834
:10010000A9020008A9020008A9020008A902000823
:10011000A9020008A9020008A9020008A902000813
:10012000A9020008A9020008A9020008A902000803
:10013000A9020008A9020008A9020008A9020008F3
:10014000A9020008A9020008A9020008A9020008E3
:1001500080B400AF044B1B780133DAB2024B1A7043
:1001600000BFBD4680BC70471300002080B584B03E
:1001700000AF0D4B00221A700C4B98470C4B5B697B
:100180000B4A43F010035361094B5B6A084A43F47E
:10019000802353620123FB600023BB60FA68BB68C5
:1001A000B2FBF3F37B60FEE7130000204902000876
:1001B00000ED00E080B500AF014B984700BF80BD67
:1001C0005101000880B400AF00BFBD4680BC70473D
:1001D00080B400AF00BFBD4680BC704780B400AFA4
:1001E00000BFBD4680BC704780B400AF00BFBD46B5
:1001F00080BC704780B400AF00BFBD4680BC704774
:1002000080B400AF00BFBD4680BC704780B400AF73
:1002100000BFBD4680BC704780B400AF00BFBD4684
:1002200080BC704780B400AF00BFBD4680BC704743
:1002300080B400AF00BFBD4680BC704780B400AF43
:1002400000BFBD4680BC704780B400AF074B084A72
:100250005A60064B00229A60044B1B68034A43F025
:100260000703136000BFBD4680BC704710E000E08C
:10027000FF083D0080B400AF00BFBD4680BC7047A2
:1002800006480749074A884205D052F8043B40F81F
:10029000043B8842F9D3FFF769BFFEE70000002066
:0A02A00013000020C0020008FEE772
:1002AC00564D413A464C4153482C4C4D413A464CE4
:0402BC004153480062
:1002C000564D413A5352414D2C4C4D413A464C41CA
:0302D00053480090
:04000005080001509E
:00000001FF
